:100000000C9469000C9491000C9491000C94910054
:100010000C9491000C9491000C9491000C94890A1A
:100020000C9491000C9491000C9491000C94B20AE1
:100030000C9491000C9491000C9491000C949100FC
:100040000C94B3170C9491000C9491000C949100B3
:100050000C9491000C9491000C9491000C949100DC
:100060000C9491000C9491000000000024002700E3
:100070002A0000000000250028002B0000000000DE
:1000800023002600290004040404040404040202DA
:100090000202020203030303030301020408102007
:1000A0004080010204081020010204081020000012
:1000B0000007000201000003040600000000000029
:1000C00000005E02250C300C3B0C4A0C550C600CF9
:1000D000991911241FBECFEFD8E0DEBFCDBF11E0CC
:1000E000A0E0B1E0E2E7F7E302C005900D92AA3C80
:1000F000B107D9F712E0AAECB1E001C01D92A33517
:10010000B107E1F710E0C2EDD0E004C02297FE0194
:100110000E94B31BC23CD107C9F70E9405050C948D
:10012000B71B0C9400000F931F93CF93DF93689F2E
:100130008001699F100D789F100D1124C8010E9445
:10014000AF00EC01009729F060E070E0A8010E9488
:10015000B101CE01DF91CF911F910F910895CF93FF
:10016000DF93BC018230910510F462E070E0A09151
:100170005102B0915202ED01E0E0F0E040E050E0C9
:1001800021C0888199818617970769F48A819B81AC
:10019000309719F09383828304C090935202809326
:1001A0005102FE0134C06817790738F44115510532
:1001B00019F08417950708F4AC01FE018A819B8130
:1001C0009C01E9012097E9F641155105A9F1CA0101
:1001D000861B970B049708F4BA01E0E0F0E02AC010
:1001E0008D919C91119784179507F9F46417750701
:1001F00081F412968D919C911397309719F0938307
:10020000828304C09093520280935102FD01329682
:100210004CC0CA01861B970BFD01E80FF91F6193C3
:10022000719302978D939C9340C0FD0182819381CD
:100230009C01D9011097A1F680914F029091500234
:10024000892B41F48091660190916701909350024F
:1002500080934F0240916801509169014115510509
:1002600041F44DB75EB78091640190916501481BE0
:10027000590B20914F0230915002CA01821B930BFF
:100280008617970780F0AB014E5F5F4F8417950785
:1002900050F0420F531F5093500240934F02F90108
:1002A0006193719302C0E0E0F0E0CF01DF91CF9164
:1002B0000895CF93DF93009709F450C0EC01229783
:1002C0001B821A82A0915102B0915202109709F13B
:1002D00040E050E0AC17BD0708F1BB83AA83FE01E4
:1002E00021913191E20FF31FAE17BF0779F48D9181
:1002F0009C911197280F391F2E5F3F4F3983288318
:1003000012968D919C9113979B838A834115510579
:1003100071F4D0935202C093510220C012968D9175
:100320009C911397AD01009711F0DC01D3CFFA0136
:10033000D383C28321913191E20FF31FCE17DF07E0
:1003400069F488819981280F391F2E5F3F4FFA0188
:10035000318320838A819B8193838283DF91CF9134
:100360000895DC0101C06D9341505040E0F70895BD
:10037000AB01BC018AEC91E02AE030E00E94A61AB1
:100380000895BC018AEC91E04AE050E00E94B51A61
:100390000895BC018AEC91E04AE050E00E94181BED
:1003A0000895682F8AEC91E00E941E1A0895BC01FE
:1003B0008AEC91E00E942B1B0895282F462F8AEC8F
:1003C00091E0622F0E945D0D08950F931F93CF93CC
:1003D000DF93142F0E94DD01C0E0D0E0012F112730
:1003E00007FD109504C080E20E94D1012196C0173C
:1003F000D107CCF3DF91CF911F910F910895EF9228
:10040000FF920F931F93F82EE62E89010E94E501BB
:100410008F2D6E2D0E94DD01C8010E94C1011F9128
:100420000F91FF90EF900895EF92FF920F931F931B
:1004300079018A010E94DD01C801B7010E94B8015B
:100440001F910F91FF90EF9008951F93142F0E941A
:10045000DD01812F0E94D1011F9108958AEC91E066
:100460000E948C0D08950F931F938C010E942E0201
:1004700080E060E00E94DD01C8010E94D7011F9169
:100480000F9108950F931F930AEC11E0C80160E1EA
:1004900042E020E00E94940DC8010E948C0DC8012A
:1004A00061E04AE651E00E942B0DC80162E042E79C
:1004B00051E00E942B0D1F910F910895CF92EF9262
:1004C0000F938AEC91E064E045E026E007E058E015
:1004D000E52E39E0C32E0E944A0E0F91EF90CF9087
:1004E00008956F927F928F929F92BF92CF92DF92E8
:1004F000EF92FF920F931F93CF93DF9380E091E0F1
:100500000E94330280917A0190917B010E94C9017F
:1005100088E091E00E94D7018FE060E04DE50E9405
:10052000250280E061E00E94DD0100E010E005C0EE
:1005300081E00E94D1010F5F1F4F8091FF01992739
:1005400087FD9095081719079CF30091DF01109122
:10055000E0018FE7D80111968C9360917A01709138
:100560007B01882777FD8095982F0E946E0BA0E075
:10057000B0E0F80186839783A087B18780917A01E4
:1005800090917B010E94F20980916F0082608093BC
:100590006F00BB24B394EE24FF248701C1E0D0E0B8
:1005A000A1E08A2E912CF8EE6F2EF3E07F2E0E94B0
:1005B000BD0BF1EAEF16F6E8FF06F1E00F07F0E0F9
:1005C0001F0708F40FC1813009F41FC1823009F4FC
:1005D000B4C0843039F0EE24FF248701E1E0CE2E50
:1005E000D12C1AC1BB2041F580E091E00E9433027A
:1005F00080917A0190917B010E94C90188E091E08D
:100600000E94D7018FE060E04DE50E94250280E066
:1006100061E00E94DD0100E010E005C081E00E9481
:10062000D1010F5F1F4F8091FF01992787FD9095A2
:10063000081719079CF3E3C08BE091E00E94330296
:1006400080917A0190917B010E94C90188E091E03C
:100650000E94D70180E061E00E94DD0100E010E02F
:1006600007C08AEC91E061E00E941E1A0F5F1F4FE5
:100670008091FF01992787FD9095081719078CF342
:1006800080E061E04BE50E9425028FE061E04DE5EE
:100690000E942502BB24B5C080E061E00E94DD011C
:1006A0008AEC91E00E94AF0B80E061E04BE50E9494
:1006B00025028FE061E04DE50E942502AAC08091ED
:1006C0007A0190917B018C0D9D1D90937B0180930D
:1006D0007A01895E934024F070927B0160927A01E6
:1006E00085E090E0C80ED91E20917A0130917B01FF
:1006F00087E060E047E00E94FF0188E091E00E940F
:10070000D7010091DF011091E00160917A017091B1
:100710007B01882777FD8095982F0E946E0BA0E0C3
:10072000B0E0F80186839783A087B18780917A0132
:1007300090917B010E94F2096CC0BB2099F480E08B
:1007400061E00E94DD018AEC91E00E94A00B80E054
:1007500061E04BE50E9425028FE061E04DE50E94DB
:1007600025023AC080917A0190917B018C1B9D0BF0
:1007700090937B0180937A011816190624F09092C9
:100780007B0180927A01259620917A0130917B013C
:1007900087E060E047E00E94FF0188E091E00E946E
:1007A000D7010091DF011091E00160917A01709111
:1007B0007B01882777FD8095982F0E946E0BA0E023
:1007C000B0E0F80186839783A087B18780917A0192
:1007D00090917B010E94F209EE24FF24870171E0D1
:1007E000C72ED12C88EE93E00E94621888EE93E029
:1007F000A0E0B0E0E80EF91E0A1F1B1FD8CEBB24F4
:10080000B39461E0C62ED12C04C0BB2009F057CFB1
:1008100043CFEE24FF248701C1E0D0E0E3CFCF93A4
:10082000DF930E94BD0B982F823009F044C0809165
:100830000002882351F482E191E00E94330280910A
:1008400000028F5F8093000231C090930002E0911C
:10085000E701F091E8018281938169EE71E00E94E5
:10086000BF118091F201882389F4E091E701F091B2
:10087000E8018281938160E070E00E94BF118CE109
:1008800091E00E9433021092000210C082EF91E0CA
:100890000E9433022091E9013091EA014091EB017D
:1008A0005091EC0180E061E00E94140264EB70E082
:1008B00080E090E078C0843009F077C08091000239
:1008C000882349F466E970E080E090E00E9409180E
:1008D0000E94710264C0813021F566E970E080E019
:1008E00090E00E94091887E291E00E94330280E0C4
:1008F00061E00E94DD01C0E0D0E004C081E00E9420
:10090000D10121968091FF01992787FD9095C81705
:10091000D907A4F30E94F00782E191E00E9433021C
:100920003EC082EF91E00E94840B882329F484E387
:1009300091E00E94330239C082EF91E00E940D07DE
:1009400081E491E00E94330280E061E00E94DD01D9
:10095000C0E0D0E004C081E00E94D10121968091E6
:10096000FF01992787FD9095C817D907A4F36CE27A
:1009700071E080E090E00E9409180E94CE0582EFAD
:1009800091E00E9433022091E9013091EA01409107
:10099000EB015091EC0180E061E00E9414026CE2F6
:1009A00071E080E090E00E940918DF91CF910895F6
:1009B0001F930E94F1080E9400090E940C050E94EA
:1009C00081070E949E080E944202E091E701F09197
:1009D000E8018281938169EE71E00E94BF11182FB6
:1009E000E091E701F091E8018281938160E070E09D
:1009F0000E94BF11112319F084E491E002C08CE140
:100A000091E00E9433021F9108950E946C180E9489
:100A1000D8040E940F04FDCF8AE090E00E94AF004E
:100A20008093DF019093E0018AE090E00E94AF00A4
:100A3000FC019093E2018093E101A091DF01B0916C
:100A4000E0011C9210820895E091DF01F091E00135
:100A50008081882319F00E940E0905C080916F00E3
:100A60008D7F80936F00E091E101F091E201808140
:100A7000882361F082819381A481B58180589E434F
:100A8000A040B04018F40E9467090895809170005A
:100A90008D7F809370000895E091DF01F091E00177
:100AA0001082E091E101F091E20110820E942405A0
:100AB0000895982F8857823020F09B3711F09C378B
:100AC00011F40E944C050895982FE091DF01F091F8
:100AD000E0018081891721F410820E942405089585
:100AE000E091E101F091E2018081891719F410820F
:100AF0000E9424050895382F462F662319F40E947A
:100B000064050895A091DF01B091E0012C912817B0
:100B100019F4CD01622F1BC0E091E101F091E201D7
:100B20006081681711F4CF0112C0222311F4CD01A6
:100B30000DC0662311F4CF0109C08AE001900D9227
:100B40008150E1F78091E1019091E201632F0E94D1
:100B50002A0B0E9424050895FC019081892F8F7033
:100B60008230D8F49C3F19F40E944C050895892FD7
:100B700082958F70893029F4818162810E947B0582
:100B80000895883021F481810E94640508958B3096
:100B900021F4818162810E94590508952F923F922C
:100BA0004F925F926F927F928F929F92AF92BF927D
:100BB000CF92DF92EF92FF920F931F93DF93CF9329
:100BC000CDB7DEB728970FB6F894DEBF0FBECDBF06
:100BD0000E94FB176D837E838F8398870E94FB178B
:100BE00069837A838B839C83662477244301222440
:100BF0003324210104C0AD82BE82CF82D8860E94F8
:100C0000FB175B016C010E94BD0B282FD601C501AB
:100C100086199709A809B90985369105A105B10575
:100C2000A0F0243019F40E944C05DEC0213029F4D4
:100C30008AEC91E00E94AF0B06C0223031F48AECBE
:100C400091E00E94A00B35014601D601C501821931
:100C50009309A409B509895E9340A040B04008F407
:100C60005DC0C601B50129813A814B815C81621B5F
:100C7000730B840B950B28EE33E040E050E00E94AC
:100C8000741B79018A01E091E701F091E801608924
:100C900071898289938928EE33E040E050E00E9418
:100CA000741B2901C7016CE370E00E944D1B9B017E
:100CB00082E060E04DE00E94FF018AE30E94D101E2
:100CC000C7016CE370E00E944D1B8C018A309105D6
:100CD00018F480E30E94D101C8010E94C1018FE293
:100CE0000E94D101C2016CE370E00E944D1BCB0158
:100CF0000E94C1018AE30E94D101C2016CE370E04D
:100D00000E944D1B8C018A30910518F480E30E94EB
:100D1000D101C8010E94C10115012601A60195015A
:100D20008D819E81AF81B885281B390B4A0B5B0BE7
:100D30000091E7011091E801D80116966D917C9120
:100D40001797FB0180819181A0E0B0E082179307A3
:100D5000A407B50708F053CFF80184899589A689BF
:100D6000B789820F931FA41FB51F848B958BA68B09
:100D7000B78B0084F185E02DDB0112968C91808386
:100D8000F801A085B18586819781FC018381119648
:100D90008C93F801A085B18586819781FC018481BF
:100DA00012968C93D80118968D919C9119970E9458
:100DB000AC050091E7011091E801F801668577859F
:100DC00046815781828593850E94D40BD8011F9656
:100DD0009C938E931E97E091E701F091E801848146
:100DE0009581892B09F007CF28960FB6F894DEBFBE
:100DF0000FBECDBFCF91DF911F910F91FF90EF906C
:100E0000DF90CF90BF90AF909F908F907F906F902A
:100E10005F904F903F902F900895FF920F931F93F4
:100E20000E94F814F82EA091E701B091E8011A96FB
:100E3000EC911A971B96FC9180E092E0DF019C01F7
:100E40001D9221503040E1F7E091E701F091E80177
:100E50008285938560E072E03496AF010E9452155E
:100E60000091E7011091E801D8011A96ED91FC91EB
:100E70001B978381208130E040E050E0522F4427CF
:100E800033272227280F311D411D511D818190E0FC
:100E9000A0E0B0E0DC0199278827280F391F4A1FFE
:100EA0005B1F828190E0A0E0B0E0BA2FA92F982FBD
:100EB0008827280F391F4A1F5B1FD80150962D9392
:100EC0003D934D935C93539784E090E01F969C93E1
:100ED0008E931E9754961D921D921D921C925797A9
:100EE00016964D915C911797CF0164E070E00E94D7
:100EF000D40BF801978786878F2D1F910F91FF9054
:100F000008950F931F930E94DE0888E190E00E94ED
:100F1000AF008C019093E8018093E70186E290E0B6
:100F20000E94AF00F801808391830091E701109146
:100F3000E8018CE090E00E94AF00F8018283938387
:100F40000091E7011091E80180E092E061E070E03B
:100F50000E949300F801828793870091E701109126
:100F6000E80185E090E00E94AF00F8018683978356
:100F70000091E7011091E80183E090E00E94AF004A
:100F8000F801808791870E94D4088FEC98E068EC84
:100F900078E049ED58E024ED38E00E94830E0E948D
:100FA000100FE091E701F091E801808191810E94AA
:100FB0009816E091E701F091E8018281938162E562
:100FC00071E00E945E14E091E701F091E801019068
:100FD000F081E02D82818F7B82831F910F91089594
:100FE0009F92AF92BF92CF92DF92EF92FF920F93B8
:100FF0001F93CF93DF93A091DF01B091E001E091C7
:10100000E101F091E20110821C920E94FB175B014A
:101010006C0182E0982E0E94FB177B018C01DC01A1
:10102000CB018A199B09AC09BD0987399105A10536
:10103000B10508F10E94BD0B843071F40E944C058B
:10104000DF91CF911F910F91FF90EF90DF90CF90A4
:10105000BF90AF909F900895813029F48AEC91E081
:101060000E94AF0B06C0823021F48AEC91E00E940E
:10107000A00B570168018091C00087FFCCCF9091F1
:10108000C600892F881F8827881F282F30E0211548
:101090003105C1F0892F807F803861F0803951F0AF
:1010A000803B41F0803E31F0E091E501F091E601B6
:1010B000108208C0E091E501F091E60190839182F1
:1010C00092821582E091E501F091E601808188230A
:1010D00009F4A1CF232B89F485810380F481E02DCD
:1010E000E80FF11D9083E091E501F091E601858123
:1010F0008F5F8583818181508183C091E501D0918B
:10110000E6018981882309F086CFA091E301B0919F
:10111000E40188818C93EB81FC81808111968C9312
:101120001197EB81FC81818112968C9312978A81B1
:1011300089831D82CD010E94AC056DCF0F931F9353
:101140001092C5008FE18093C40088E18093C100B4
:1011500086E08093C20086E090E00E94AF008C01A0
:101160009093E6018093E501FC01108282E090E01B
:101170000E94AF00F8018383948383E090E00E9493
:10118000AF008093E3019093E4011F910F910895C4
:101190008FEF8EBD0DB407FEFDCF8EB508958EBDC9
:1011A0000DB407FEFDCF08958AE061E00E94E618C5
:1011B00008958AE060E00E94E61808958AE061E000
:1011C0000E94A7188BE061E00E94A7188CE062E003
:1011D0000E94A7188DE061E00E94A71880E58CBDF1
:1011E00008951092800088E08093810010926F0033
:1011F00082E08093B0001092B100109270000895C8
:10120000529A8EE060E00E94A71881E160E00E949F
:10121000A71880E160E00E94A7180895E091DF011F
:10122000F091E001228133814481558174E0220FE5
:10123000331F441F551F7A95D1F763E056954795A4
:10124000379527956A95D1F7213080E0380781E0FE
:10125000480780E0580714F48AE021C093E05595D0
:101260004795379527959A95D1F7213080E0380733
:1012700081E0480780E0580714F48BE010C082E05A
:1012800055954795379527958A95D1F7213080E078
:10129000380781E0480780E058071CF48CE0809311
:1012A00081002150304040405040309389002093CD
:1012B000880086819781A085B1850097A105B10539
:1012C00029F080916F00826080936F000895E09113
:1012D000E101F091E2012281338144815581A4E052
:1012E000220F331F441F551FAA95D1F7213081E0EB
:1012F000380780E0480780E0580714F481E05CC0BC
:1013000073E055954795379527957A95D1F7213014
:1013100081E0380780E0480780E0580714F482E055
:101320004BC062E055954795379527956A95D1F75B
:10133000213081E0380780E0480780E0580714F446
:1013400083E03AC05595479537952795213081E040
:10135000380780E0480780E0580714F484E02CC088
:101360005595479537952795213081E0380780E0DE
:10137000480780E0580714F485E01EC0559547954E
:1013800037952795213081E0380780E0480780E0D5
:10139000580714F486E010C0A2E05595479537959C
:1013A0002795AA95D1F7213081E0380780E04807DA
:1013B00080E058071CF487E08093B1002150304052
:1013C000404050402093B30086819781A085B1852D
:1013D0000097A105B10529F080917000826080938B
:1013E000700008959C0140E050E060E472E48FE0FA
:1013F00090E00E94741B64E0220F331F441F551FAE
:101400006A95D1F793E056954795379527959A9524
:10141000D1F7213080E0380781E0480780E05807A5
:1014200014F48AE021C083E05595479537952795B8
:101430008A95D1F7213080E0380781E0480780E0C5
:10144000580714F48BE010C0B2E0559547953795D6
:101450002795BA95D1F7213080E0380781E0480719
:1014600080E058071CF48CE08093810021503040CC
:1014700040405040309389002093880008950F9396
:101480001F93CF93DF938C016091FF01772767FD56
:101490007095A4E0660F771FAA95E1F7882777FD7E
:1014A0008095982FF80126813781408551850E94CB
:1014B0002E1B672F782F892F992787FD9A958827CC
:1014C00077FD8095982FF801218130E040E050E0D1
:1014D0000E942E1B672F782F892F992787FD9A95B9
:1014E000EB016A30710514F4CAE0D0E082E061E0FB
:1014F0000E94E618CE010E94621882E060E00E941D
:10150000E618CE010E946218DF91CF911F910F91D2
:1015100008951F920F920FB60F9211242F933F93AD
:101520004F935F936F937F938F939F93AF93BF93EB
:10153000EF93FF938091E1019091E2010E943F0AB5
:10154000B198FF91EF91BF91AF919F918F917F9152
:101550006F915F914F913F912F910F900FBE0F9020
:101560001F9018951F920F920FB60F9211242F9370
:101570003F934F935F936F937F938F939F93AF931B
:10158000BF93EF93FF938091DF019091E0010E9460
:101590003F0AB998FF91EF91BF91AF919F918F91C1
:1015A0007F916F915F914F913F912F910F900FBE5F
:1015B0000F901F901895CF93DF93C82FD0E0E99735
:1015C000D7FD20C0CE016CE070E00E94611BFB01E2
:1015D000EA56FE4F208130E0CE016CE070E00E94C0
:1015E000611BFC01EE0FFF1FE456FE4F80819181CD
:1015F000AC01249FC001259F900D349F900D1124B4
:101600009C0121C0CE01809590956CE070E00E9415
:10161000611BDB011196FD01EE0FFF1FEA0FFB1F9F
:10162000EE0FFF1FEE0FFF1FEC0FFD1FEE0FFF1F52
:10163000E456FE4FAA56BE4F6C918081918170E0B6
:101640000E944D1B9B0140E050E0B901CA01DF91AF
:10165000CF910895DF92EF92FF920F931F93CF9354
:10166000DF93EC01862FD42E68830E94DB0A7B0176
:101670008C0160E472E48FE090E0A80197010E9481
:10168000741B2A833B834C835D83C801B70124E626
:1016900030E040E050E00E94961BF9012A3131050C
:1016A0001CF020E030E007C0E458FE4F908183E05A
:1016B000989F90011124C901A0E0B0E08E839F8320
:1016C000A887B987D6948FE7D80ED982DF91CF91BA
:1016D0001F910F91FF90EF90DF90089524E630E086
:1016E00040E050E00E94961BF9012A3131051CF0C0
:1016F00020E030E007C0E458FE4F908183E0989FDF
:1017000090011124C901089520E030E0FC01E20FAE
:10171000F31F4081442389F04E3219F02F5F3F4F71
:10172000F5CF81818F3449F482818D3431F490E09A
:101730008381843419F491E001C090E0892F0895E9
:101740008091FF01882351F0815061E040E20E94C6
:1017500025028091FF0181508093FF0108958091BF
:10176000FF01803149F061E041E00E942502809153
:10177000FF018F5F8093FF0108958EE00E943A1968
:10178000892B11F481E0089581E10E943A19892B97
:1017900011F482E0089580E10E943A19892B11F03A
:1017A00085E0089584E008950F931F93CF93DF930E
:1017B0008C01EA01E091E701F091E80184819581D3
:1017C00068177907A8F08285938560E072E0349607
:1017D000AF010E945215E091E701F091E801848188
:1017E0009581892B19F460E070E029C060E070E019
:1017F0006F5F7F4FD801A60FB71F615070402C91CB
:101800002F77F801E60FF71F808190E09695982FCB
:10181000882797958795820F911D998388838C914E
:1018200087FD02C081E801C081E98A83F801E60FE3
:10183000F71F82818B8383818C836C5F7F4FCB0109
:10184000DF91CF911F910F9108950F9381E092E066
:1018500060E040E020E000E00E948D190F910895C3
:101860000F9387E092E060E040E020E000E00E941B
:101870008D190F9108950F9385E192E060E040E0AB
:1018800020E000E00E948D198DE092E00E94EA19AC
:101890000F9108950F938BE192E060E040E020E02B
:1018A00000E00E948D190F9108950F9381E292E05C
:1018B00060E040E020E000E00E948D190F91089563
:1018C0000F9387E292E060E040E020E000E00E94B9
:1018D0008D190F9108950F931F938C01FC01868140
:1018E00060E00E94E61881E090E00E946218F80132
:1018F000868161E00E94E61881E090E00E94621813
:10190000F801868160E00E94E61884E690E00E947B
:1019100062181F910F910895CF92DF92EF92FF927C
:101920000F931F93CF93DF93D82EC92E282F392FD3
:10193000C9018C01C0E0D0E0E62EFF24F8018781C8
:1019400061E00E94A718B7010C2E02C0759567953B
:101950000A94E2F76170F80187810E94E6182196E7
:101960000F5F1F4FC830D10549F78D2D9C2D0E9468
:101970006B0CDF91CF911F910F91FF90EF90DF9053
:10198000CF900895CF92DF92EF92FF920F931F9323
:10199000CF93DF93D82EC92E282F392FC9018C0160
:1019A000C0E0D0E0E62EFF24F801878161E00E94CC
:1019B000A718B7010C2E02C0759567950A94E2F737
:1019C0006170F80187810E94E61821960F5F1F4F12
:1019D000C430D10549F78D2D9C2D0E946B0CDF91F1
:1019E000CF911F910F91FF90EF90DF90CF900895CE
:1019F0001F93CF93DF93EC01162F8C81642F0E94ED
:101A0000E6188D818F3F19F060E00E94E6188F85FF
:101A100084FF05C0CE01612F0E948C0C0EC0612F87
:101A200070E084E0759567958A95E1F7CE010E9494
:101A3000C20CCE01612F0E94C20CDF91CF911F9189
:101A4000089541E00E94F80C81E090E0089540E0A4
:101A50000E94F80C0895EF92FF920F931F93CF937B
:101A6000DF938C017A016770660F660F660F606402
:101A70000E94270DC0E0D0E0D801ED91FC91D70184
:101A8000AC0FBD1F0190F081E02DC8016C9109954C
:101A90002196C830D10581F7DF91CF911F910F9129
:101AA000FF90EF900895FC016089862F8460808B01
:101AB0006C60CF010E94270D0895DF93CF93CDB7BF
:101AC000DEB728970FB6F894DEBF0FBECDBF9C01DE
:101AD000FE013196ACEBB1E088E00D9001928150AF
:101AE000E1F7F9018389481710F0482F4150E42F9E
:101AF000F0E0EE0FFF1FEC0FFD1F8181680F6068A3
:101B0000C9010E94270D28960FB6F894DEBF0FBEBC
:101B1000CDBFCF91DF91089561E00E94270D80ED48
:101B200097E00E9462180895CF93DF93EC01423052
:101B300018F08F8588608F874B8B1C8A222329F0B1
:101B4000413019F48F8584608F8780E593EC0E9483
:101B500062188C8160E00E94E6188E8160E00E942D
:101B6000E6188D818F3F19F060E00E94E6186F85BE
:101B700064FD1DC0CE0163E00E94C20C84E991E1C6
:101B80000E946218CE0163E00E94C20C84E991E1D8
:101B90000E946218CE0163E00E94C20C86E990E0C8
:101BA0000E946218CE0162E00E94C20C16C0606200
:101BB000CE010E94270D84E991E10E9462186F8591
:101BC0006062CE010E94270D86E990E00E946218B3
:101BD0006F856062CE010E94270D6F856062CE0125
:101BE0000E94270D84E0888BCE010E94530DCE0108
:101BF0000E948C0D82E0898BCE0166E00E94270D49
:101C0000DF91CF9108956F927F928F92AF92CF9292
:101C1000EF920F931F93DF93CF93CDB7DEB73C01C5
:101C2000162F842FF301448325830683E782C08621
:101C3000A18682869D8593879E8594879F859587BB
:101C40009889968761E00E94A718F30185818F3FEC
:101C500019F061E00E94A718F301868161E00E94FB
:101C6000A718112319F0F301178603C080E1F301CF
:101C70008787C30160E141E020E00E94940DCF918D
:101C8000DF911F910F91EF90CF90AF908F907F9049
:101C90006F9008958F92AF92CF92EF920F931F9310
:101CA000CF93DF93DC01362F542F722F102FAE2CE1
:101CB0008C2C13961C921E92129788EB91E0119631
:101CC0009C938E9300D000D0EDB7FEB73196CDB780
:101CD000DEB71982118212821382CD0161E0432F97
:101CE0002FEF052FE72EC12E0E94030E0F900F90AD
:101CF0000F900F90DF91CF911F910F91EF90CF90A8
:101D0000AF908F90089590932E0280932D02709340
:101D1000300260932F02509332024093310230938D
:101D20003402209333020895DF92EF92FF920F93D3
:101D30001F93CF93DF93D82E7A018B0187FF0CC0BE
:101D400087E740E050E060E070E00E94940E82304F
:101D500008F05EC08FE7D822E0913302F0913402A0
:101D60000995E0913102F09132020995E0912F023C
:101D7000F09130020995C4ECD9E0E0912F02F09186
:101D8000300209958F3F21F02197B9F78FEF40C0BE
:101D9000E0912D02F0912E028D2D0995812F99272A
:101DA000AA27BB27E0912D02F0912E020995C801C8
:101DB000AA27BB27E0912D02F0912E020995BB279F
:101DC000A12F902F8F2DE0912D02F0912E020995D9
:101DD000E0912D02F0912E028E2D099580E4D81607
:101DE00011F485E906C088E4D81611F487E801C02B
:101DF00081E0E0912D02F0912E0209951AE0E09128
:101E00002F02F0913002099587FF02C01150B9F7F7
:101E1000DF91CF911F910F91FF90EF90DF90089588
:101E2000CF92DF92EF92FF920F931F93DF93CF93A6
:101E300000D000D0CDB7DEB714E6E0912F02F091CC
:101E4000300209951150C9F780E440E050E060E0AD
:101E500070E00E94940E813009F06CC088E44AEA78
:101E600051E060E070E00E94940E813009F040C0C3
:101E70006E010894C11CD11C76018E010B5F1F4FAF
:101E8000E0912F02F09130020995F70181937F01D3
:101E9000E017F107A9F78B81813009F04BC08C81E5
:101EA0008A3A09F047C008EA11E604C00150104020
:101EB00009F440C089EE40E050E060E070E40E9428
:101EC000940E882399F754C0E0912F02F0913002CC
:101ED0000995F60181936F01EE15FF05A9F7898138
:101EE00086FD03C074E0F72E26C06CE0F62E23C0FA
:101EF00089EE40E050E060E070E00E94940E823095
:101F000028F051E4E52EFF24F39404C049EEE42EBA
:101F100032E0F32E08EA11E603C00150104051F000
:101F20008E2D40E050E060E070E00E94940E882327
:101F3000A1F729C0FF24F0924E02E0913302F09104
:101F400034020995E0912F02F0913002099580E06A
:101F5000FF2009F481E00F900F900F900F90CF9128
:101F6000DF911F910F91FF90EF90DF90CF90089538
:101F70008AE740E050E060E070E00E94940E882321
:101F800009F4A2CFD7CF80E540E052E060E070E0F6
:101F90000E94940E882371F6CECF8F929F92AF92BB
:101FA000BF92CF92DF92EF92FF920F931F93CF9346
:101FB000DF93982E892E69015801FFEFEF2EFFE77E
:101FC000FF2EE022F122E114F10409F490C0C701D0
:101FD000820F931F8150924008F089C080914E0279
:101FE00083FD07C0E9E0440F551F661F771FEA9580
:101FF000D1F781E50E94940E882309F066C0C8EEEF
:10200000D3E0E0912F02F091300209958F3F19F44F
:102010002197B9F75AC08E3F09F057C00027112702
:102020000C191D090E5F1D4F0E191F0908C0E09104
:102030002F02F091300209950894C108D108C1140B
:10204000D104A9F7B7FE29C0C92DD82DE0913902D6
:10205000F0913A020995E0913502F0913602099526
:10206000E0912F02F09130020995FE010995D82EDA
:10207000E0913702F091380209950894E108F108DF
:10208000E114F10411F0DD2031F7E0913B02F09111
:102090003C0209950E0D1F1D10C0892D982D9C0125
:1020A000E901E0912F02F09130020995899308949B
:1020B000E108F108E114F104A1F7E0912F02F09199
:1020C0003002099501501040C1F7E0913302F091C0
:1020D00034020995E0912F02F09130020995C70171
:1020E000E114F10411F081E090E09C0102C024E0D1
:1020F00030E0C901DF91CF911F910F91FF90EF90D8
:10210000DF90CF90BF90AF909F908F9008958F9267
:102110009F92AF92BF92CF92DF92EF92FF920F9376
:102120001F93DF93CF9300D000D0CDB7DEB75C0113
:1021300080903D0290903E0282E0A816B10408F41F
:102140007DC0F40180859185A816B90608F076C097
:102150008081813021F0823009F070C051C0C5010A
:10216000969587958A0D9B1D9C013170892F992723
:1021700086956C01EE24FF24F40142855385648525
:102180007585CE010196F1E02F3F3F0749F0C40E5F
:10219000D51EE61EF71EB701A60102E010E01EC024
:1021A0004C0D5D1D6E1D7F1D2FEF31E001E010E035
:1021B0000E94CD0F892B09F041C0F401428553855F
:1021C000648575854F5F5F4F6F4F7F4F4C0D5D1D71
:1021D0006E1D7F1DCE01029620E030E00E94CD0FE3
:1021E000892B61F589819A81A0FE07C09C0144E09A
:1021F000369527954A95E1F723C09C013F7020C092
:102200004B2D552760E070E0F40182859385A4850D
:10221000B585480F591F6A1F7B1FFFEFAF22BB24F4
:10222000AA0CBB1CCE010196950102E010E00E94B1
:10223000CD0F892B19F429813A8102C021E030E0C9
:10224000C9010F900F900F900F90CF91DF911F91C8
:102250000F91FF90EF90DF90CF90BF90AF909F9045
:102260008F900895EF92FF920F931F93CF93DF9378
:102270007C01C0913D02D0913E02FC0100811181A0
:102280000F5F1F4F09F471C020853185428553854A
:10229000211531054105510509F467C0C8018F704A
:1022A0009070892B09F05BC02F5F3F4F4F4F5F4FFE
:1022B00020873187428753874681578141155105D1
:1022C00039F48C819D810817190708F448C04DC066
:1022D000898190E00197980174E0369527957A9569
:1022E000E1F782239323892BD1F5CA010E9487103D
:1022F000BC018230910518F421E030E038C08885B7
:1023000099856817790788F5F70177836683C09107
:102310003D02D0913E0262507040888599850297B7
:102320006817790728F020E030E040E050E012C064
:1023300080E090E0298130E040E050E00E942E1BD8
:102340009B01AC018A899B89AC89BD89280F391F03
:102350004A1F5B1FF7012087318742875387F701A8
:102360001183008320E030E002C023E030E0C901A7
:10237000DF91CF911F910F91FF90EF900895AF9251
:10238000BF92CF92DF92EF92FF920F931F93DF9352
:10239000CF93CDB7DEB7AC970FB6F894DEBF0FBEC4
:1023A000CDBF6C015B0100913D0210913E02011511
:1023B000110519F428E030E01CC1CE010D96D801BA
:1023C00017969C938E931697CE010196F6019383F0
:1023D00082836115710519F023E030E077C0D601E2
:1023E00011961C921E9214966D917C9115976130F6
:1023F000710509F4FCC0F80180859185681779079B
:1024000008F0F5C017967C936E93169761157105C9
:1024100019F162507040808591850297681779079D
:1024200028F020E030E040E050E01DC080E090E087
:10243000D80111962C9130E040E050E00E942E1B14
:102440009B01AC01F80182899389A489B589280F81
:10245000391F4A1F5B1F07C0D8011E962D913D9161
:102460004D915C915197F6012087318742875387C0
:10247000BBC0E0913D02F0913E02E680F780D601BC
:102480002D913C912F703070A5E0220F331FAA953B
:10249000E1F7C70100E210E00E94CD0F892B19F08F
:1024A00021E030E022C0F7012081222309F4B3C0EB
:1024B0008385253E29F02E3219F08F7383FF21C0CA
:1024C000C6010E9432119C01009779F4D60118963A
:1024D0004D915D916D917C911B9741155105610561
:1024E000710539F62115310561F0F6011086118666
:1024F000128613862330310521F02115310509F0AC
:1025000078C09501275F3F4FF60180859185A285B0
:10251000B3850097A105B10509F456C0E0913D02CD
:10252000F0913E024681578180E090E0FA01E80F89
:10253000F91FE081E03251F0E53009F4E5EED90110
:10254000ED939D0101968830910581F7FA01808510
:10255000803211F4F90110C0F9018EE28193DA01A1
:102560002C5F3F4F18968C911897803229F08193F9
:102570001196E217F307B1F7DA011B968C91D5019A
:1025800018968C93DA015C960D911D912D913C91DA
:102590005F97D5010D931D932D933C931397DA010B
:1025A00058968D919C915997D50115969C938E9331
:1025B0001497DA0156968D919C915797D5011796ED
:1025C0009C938E9316979F01F9011082C6010E9479
:1025D00032119C018330910561F4D60118961D9249
:1025E0001D921D921C921B9720E030E002C021E05A
:1025F00030E0C901AC960FB6F894DEBF0FBECDBF78
:10260000CF91DF911F910F91FF90EF90DF90CF90CE
:10261000BF90AF90089523E030E067CF7F928F9214
:102620009F92AF92BF92CF92DF92EF92FF920F9361
:102630001F93CF93DF937C016B01DB018C918F3271
:1026400019F40894C11CD11CE7011D821C82F601FB
:1026500080818032F0F4E0913D02F0913E021982D7
:10266000188280859185892B69F01F821E8286855C
:102670009785A089B18988879987AA87BB8740E019
:1026800050E002C041E050E00680F781E02D10826A
:10269000F5C000E2702E88248394F701A281B381F3
:1026A000FD01CD010B9601C07192E817F907E1F722
:1026B00030E0992468E002C038E06BE0F601E90DF3
:1026C000F11D20819394203250F12F3241F12E32AE
:1026D00011F0361730F0683009F0CBC02E3261F3BC
:1026E000C8C02F3708F0C5C0422F50E0E4E5F1E044
:1026F00001C031968081882339F0992787FD909514
:1027000084179507B1F7B5C0822F81568A3108F436
:102710002052FD01E30FF11D20833F5FCFCF332314
:1027200009F4A7C01B961C921B97203210F41B962D
:102730008C92C0913D02D0913E02D70111961C921D
:102740001E9214966D917C9115976130710509F474
:10275000A7C0888599856817790708F0A1C01796E2
:102760007C936E9316976115710501F1625070406C
:102770008885998502976817790728F020E030E06E
:1027800040E050E017C080E090E0298130E040E078
:1027900050E00E942E1B9B01AC018A899B89AC8969
:1027A000BD89280F391F4A1F5B1F04C02E853F8536
:1027B00048895989F70120873187428753870E80DE
:1027C000DF81C02D1BE0A12EB12CAC0EBD1ED701A8
:1027D00018964D915D916D917C911B972D913C9137
:1027E0002F703070B5E0220F331FBA95E1F7CE019C
:1027F00000E210E00E94CD0F892B09F051C08881C2
:10280000882309F44AC08B8583FD0FC0F701A2819C
:10281000B381FE01EA15FB0509F445C090818C9156
:10282000981719F431961196F5CFC7010E9432110D
:10283000AC01009761F24330510501F5D7011296C2
:10284000ED91FC91139783858823B1F017C0E09137
:102850003D02F0913E020680F781E02D838584FFE2
:102860000BC0C90CD11C828D938DE7019D838C8395
:1028700014CF45E050E002C044E050E0CA01DF91CF
:10288000CF911F910F91FF90EF90DF90CF90BF906D
:10289000AF909F908F907F90089543E050E0CBCF12
:1028A00041E050E0C8CFD7011296ED91FC9113970B
:1028B0008385882361F240E050E0E0CFCF92DF9241
:1028C000EF92FF920F931F93DF93CF93CDB7DEB7B5
:1028D000AC970FB6F894DEBF0FBECDBF6C01E09190
:1028E0003D02F0913E02309721F428E0E22EF12CD7
:1028F0006BC08E01035F1F4F17830683CE010196C5
:10290000F60193838283C6010E940E137C01009717
:1029100009F054C08D85882349F0888D84FF51C00B
:10292000F801828D938DF6019583848300913D0299
:1029300010913E02F601118210826481758161302E
:10294000710509F451C0F8018085918568177907F0
:1029500008F04AC0F601778366836115710519F1A5
:1029600062507040F8018085918502976817790759
:1029700028F020E030E040E050E01AC080E090E035
:10298000F801218130E040E050E00E942E1B9B01C5
:10299000AC01F80182899389A489B589280F391F70
:1029A0004A1F5B1F05C0F80126853785408951897C
:1029B000F601208731874287538706C0833091050F
:1029C00019F494E0E92EF12CC701AC960FB6F894F7
:1029D000DEBF0FBECDBFCF91DF911F910F91FF9052
:1029E000EF90DF90CF90089581E0E82EF12CECCFAE
:1029F000EF92FF920F931F93DF93CF93CDB7DEB784
:102A0000E8970FB6F894DEBF0FBECDBFBC010091B2
:102A10003D0210913E020115110519F428E030E045
:102A200033C0F801128239E1E32EF12CEC0EFD1EC9
:102A3000F782E682CE010D969C838B83CE010196B0
:102A40000E940E139C010097F9F4898D8823D1F020
:102A50008CA184FD17C0F701828D938DF801978FAB
:102A6000868FF701848D958DA68DB78DF801828FA5
:102A7000938FA48FB58F168A178A108E118E81E0DE
:102A8000828302C023E030E0C901E8960FB6F894D3
:102A9000DEBF0FBECDBFCF91DF911F910F91FF9091
:102AA000EF9008954F925F926F927F928F929F92D4
:102AB000AF92BF92CF92DF92EF92FF920F931F934C
:102AC000CF93DF933C016B014A01C0913D02D0914D
:102AD0003E02FA0111821082209719F428E030E0BA
:102AE000D1C08A8180FD03C027E030E0CBC02A8DB1
:102AF0003B8D4C8D5D8D8E899F89A88DB98D281B4E
:102B0000390B4A0B5B0BCB01A0E0B0E0281739076B
:102B10004A075B0708F469015301412C52E0552E26
:102B2000ABC0EE88FF88088D198DD801C701917060
:102B3000A070B0700097A105B10509F05AC0C80196
:102B4000B70149E096958795779567954A95D1F7AE
:102B5000298130E040E050E00E94741B611571054E
:102B60008105910591F4E114F1040105110519F4B1
:102B70008E8D9F8D04C088A199A10E9487108230FC
:102B8000910550F199A388A31B8200913D021091F9
:102B90003E0268A179A162507040F801808591855C
:102BA000029768177907C0F480E090E0218130E057
:102BB00040E050E00E942E1B9B01AC01F80182898D
:102BC0009389A489B589280F391F4A1F5B1F2115D6
:102BD00031054105510511F41A822EC08B81280F51
:102BE000311D411D511D2AA33BA34CA35DA38F5F43
:102BF0008B832E893F89488D598DC9019170B2010F
:102C0000681B790B76016C157D0508F47B018A81C0
:102C100031704AA15BA16CA17DA186FF04C0870130
:102C20001068C30102C0C50187010E94CD0F009743
:102C300049F01A82029719F021E030E023C026E023
:102C400030E020C0AE0CBF1CC701A0E0B0E02E8970
:102C50003F89488D598D280F391F4A1F5B1F2E8BC6
:102C60003F8B488F598FF401808191818E0D9F1D7C
:102C700091838083CE18DF08C114D10409F051CFAD
:102C800020E030E0C901DF91CF911F910F91FF90BB
:102C9000EF90DF90CF90BF90AF909F908F907F90FC
:102CA0006F905F904F900895AF92BF92CF92DF9256
:102CB000EF92FF920F931F93CF93DF93B82EA92E1D
:102CC0006A017B012EEF31E002E010E00E94CD0F9F
:102CD000892B11F023E020C0CB2DDA2D888199813A
:102CE00085559A4A11F022E017C08B2D9A2DB70115
:102CF000A60126E330E002E010E00E94CD0F892B10
:102D000011F021E009C020E0888199818654914426
:102D100009F421E081E02827822FDF91CF911F91D4
:102D20000F91FF90EF90DF90CF90BF90AF900895FC
:102D30006F927F928F929F92AF92BF92CF92DF92CB
:102D4000EF92FF920F931F93DF93CF93CDB7DEB730
:102D5000A4970FB6F894DEBF0FBECDBF5C011092F2
:102D60003E0210923D02009709F4DFC00E94100F4E
:102D700080FF03C022E030E0E0C04E010894811CD7
:102D8000911CC40140E050E060E070E00E945416E5
:102D9000813021F0CC24DD2476011BC0C40140E049
:102DA00050E060E070E02EEB31E000E110E00E94C6
:102DB000CD0F892B09F0BCC08D81882309F4BBC0DD
:102DC000C984DA84EB84FC84C401B701A6010E94A3
:102DD0005416833009F4ACC0882309F0ACC0CE018E
:102DE0000196B701A6012DE030E004E210E00E9458
:102DF000CD0F892B09F09CC08A859B85BC0180E0A2
:102E000090E0611571058105910521F4688D798D3A
:102E10008A8D9B8D2C8130E040E050E00E942E1B7B
:102E20003B014C018A819B81A0E0B0E0C80ED91E15
:102E3000EA1EFB1EF501C286D386E486F5868981EB
:102E400081832D813E81358324838F8198857C0108
:102E500000E010E0E114F1040105110521F4EC8813
:102E6000FD880E891F898A819B81A0E0B0E0E81A65
:102E7000F90A0A0B1B0BE618F7080809190974E090
:102E8000369527957A95E1F7C901A0E0B0E0E81AF8
:102E9000F90A0A0B1B0BF501218130E040E050E0FC
:102EA000C801B7010E94741B2E5F3F4F4F4F5F4F09
:102EB000F50131872087273FFFE03F07F0E04F070C
:102EC000F0E05F0710F481E006C0275F3F4F40400D
:102ED000504088F582E0F501808322853385448562
:102EE0005585D401C301820F931FA41FB51F868788
:102EF0009787A08BB18B8481958164E096958795A7
:102F00006A95E1F7A0E0B0E0820F931FA41FB51F00
:102F1000860D971DA81DB91D828B938BA48BB58B35
:102F20001282B0923E02A0923D0220E030E005C045
:102F300021E030E002C029E030E0C901A4960FB6DC
:102F4000F894DEBF0FBECDBFCF91DF911F910F91DF
:102F5000FF90EF90DF90CF90BF90AF909F908F90B9
:102F60007F906F9008951F920F920FB60F921124C9
:102F70002F933F938F939F93AF93BF93809143027F
:102F800090914402A0914502B091460230914702CF
:102F90000196A11DB11D232F2D5F2D3720F02D5738
:102FA0000196A11DB11D2093470280934302909387
:102FB0004402A0934502B093460280913F02909153
:102FC0004002A0914102B09142020196A11DB11DA3
:102FD00080933F0290934002A0934102B09342023B
:102FE000BF91AF919F918F913F912F910F900FBE05
:102FF0000F901F9018958FB7F8942091430230914D
:10300000440240914502509146028FBFB901CA0166
:1030100008959B01AC017FB7F89480913F02909195
:103020004002A0914102B091420266B5A89B05C042
:103030006F3F19F00196A11DB11D7FBFBA2FA92FB7
:10304000982F8827860F911DA11DB11D62E0880F62
:10305000991FAA1FBB1F6A95D1F7BC012DC0FFB7EE
:10306000F89480913F0290914002A0914102B0916A
:103070004202E6B5A89B05C0EF3F19F00196A11DDD
:10308000B11DFFBFBA2FA92F982F88278E0F911D32
:10309000A11DB11DE2E0880F991FAA1FBB1FEA9571
:1030A000D1F7861B970B885E9340C8F221503040C1
:1030B0004040504068517C4F211531054105510574
:1030C00071F60895019739F0880F991F880F991F9D
:1030D00002970197F1F70895789484B5826084BDD2
:1030E00084B5816084BD85B5826085BD85B581600C
:1030F00085BDEEE6F0E0808181608083E1E8F0E06C
:103100001082808182608083808181608083E0E89A
:10311000F0E0808181608083E1EBF0E08081846079
:103120008083E0EBF0E0808181608083EAE7F0E07B
:1031300080818460808380818260808380818160DF
:1031400080838081806880831092C1000895CF932E
:10315000DF93482F50E0CA0186569F4FFC013491FF
:103160004A575F4FFA018491882369F190E0880FF4
:10317000991FFC01E859FF4FA591B491FC01EE584D
:10318000FF4FC591D491662351F42FB7F8948C91D9
:10319000932F909589238C93888189230BC062306B
:1031A00061F42FB7F8948C91932F909589238C9389
:1031B0008881832B88832FBF06C09FB7F8948C919A
:1031C000832B8C939FBFDF91CF910895482F50E0C0
:1031D000CA0182559F4FFC012491CA0186569F4F18
:1031E000FC0194914A575F4FFA013491332309F45B
:1031F00040C0222351F1233071F0243028F42130D3
:10320000A1F0223011F514C02630B1F02730C1F002
:103210002430D9F404C0809180008F7703C080915E
:1032200080008F7D8093800010C084B58F7702C0AE
:1032300084B58F7D84BD09C08091B0008F7703C0B5
:103240008091B0008F7D8093B000E32FF0E0EE0F0F
:10325000FF1FEE58FF4FA591B4912FB7F894662346
:1032600021F48C919095892302C08C91892B8C93A9
:103270002FBF0895682F70E0CB0182559F4FFC014E
:103280002491CB0186569F4FFC0144916A577F4F92
:10329000FB019491992319F420E030E03CC02223F3
:1032A00051F1233071F0243028F42130A1F0223084
:1032B00011F514C02630B1F02730C1F02430D9F414
:1032C00004C0809180008F7703C0809180008F7D43
:1032D0008093800010C084B58F7702C084B58F7D45
:1032E00084BD09C08091B0008F7703C08091B00089
:1032F0008F7D8093B000892F90E0880F991F8458AC
:103300009F4FFC01A591B4918C9120E030E0842383
:1033100011F021E030E0C90108950F93FC0188EC21
:1033200091E09183808362834383248305830F919B
:10333000089588EC91E0909349028093480210929E
:103340004A0210924B0210924C0210924D020895C4
:103350008F929F92AF92BF92CF92DF92EF92FF92A5
:103360000F931F93CF93DF934C016B017C01AA2431
:10337000BB24C0E0D0E0C601F70162814AE050E022
:103380000E94C61A8C01C6016EE20E941E1A080F26
:10339000191FA00EB11E21960894E11CF11CC33028
:1033A000D10549F7C601F40165814AE050E00E9469
:1033B000C61A9501280F391FC901DF91CF911F91BE
:1033C0000F91FF90EF90DF90CF90BF90AF909F90C4
:1033D0008F900895FC0188EC91E0918380831282A4
:1033E0001382148215820895CF92DF92EF92FF929A
:1033F0000F931F93CF93DF937C016B018A01C0E091
:10340000D0E00FC0D6016D916D01D701ED91FC9117
:103410000190F081E02DC7010995C80FD91F015017
:1034200010400115110571F7CE01DF91CF911F9169
:103430000F91FF90EF90DF90CF900895DC01ED9118
:10344000FC910190F081E02D09950895CF93DF93D1
:10345000EC016115710519F420E030E00FC0DB01CB
:103460000D900020E9F71197A61BB70BE881F981B1
:103470000280F381E02DAD0109959C01C901DF9126
:10348000CF9108954F925F927F928F929F92AF92C9
:10349000BF92CF92DF92EF92FF920F931F93DF9331
:1034A000CF93CDB7DEB7A1970FB6F894DEBF0FBEAE
:1034B000CDBF2C01742ECB01223008F42AE019A2D2
:1034C00031E2C32ED12CCC0EDD1E822E9924AA24EB
:1034D000BB24672D752FA50194010E94741B7901EF
:1034E0008A01C801B701A50194010E942E1B472D36
:1034F000461B0894C108D1084A3014F4405D01C04D
:10350000495CF6014083E114F1040105110521F045
:103510007E2C5F2DC801DDCFC201B6010E94261AA4
:10352000A1960FB6F894DEBF0FBECDBFCF91DF914D
:103530001F910F91FF90EF90DF90CF90BF90AF90D1
:103540009F908F907F905F904F900895DC012115A0
:10355000310541F4ED91FC910190F081E02D642F53
:10356000099508950E94421A0895EF92FF920F93D1
:103570001F939A017B0100E010E0B801A7010E94AF
:10358000A61A1F910F91FF90EF900895EF92FF926E
:103590000F931F939A01E62EFF2400E010E0B8017C
:1035A000A7010E94A61A1F910F91FF90EF90089516
:1035B000CF92DF92EF92FF920F931F93CF93DF93FF
:1035C000EC016A017B012115310541F4E881F981A3
:1035D0000190F081E02D642F09951FC02A3031053C
:1035E000D1F477FF17C0E881F9810190F081E02DD7
:1035F0006DE209958C0144275527BA014C195D09E4
:103600006E097F09CE012AE00E94421A9801280F14
:10361000391F04C02AE00E94421A9C01C901DF91AF
:10362000CF911F910F91FF90EF90DF90CF90089571
:10363000EF92FF920F931F937B019A010027F7FCF3
:103640000095102FB801A7010E94D81A1F910F9161
:10365000FF90EF9008950E94261A0895629FD0016E
:10366000739FF001829FE00DF11D649FE00DF11D3D
:10367000929FF00D839FF00D749FF00D659FF00DEC
:103680009927729FB00DE11DF91F639FB00DE11DD9
:10369000F91FBD01CF0111240895AA1BBB1B51E1E5
:1036A00007C0AA1FBB1FA617B70710F0A61BB70BB2
:1036B000881F991F5A95A9F780959095BC01CD0157
:1036C000089597FB092E07260AD077FD04D0E5DF81
:1036D00006D000201AF4709561957F4F0895F6F793
:1036E000909581959F4F0895A1E21A2EAA1BBB1BAE
:1036F000FD010DC0AA1FBB1FEE1FFF1FA217B307BE
:10370000E407F50720F0A21BB30BE40BF50B661FD3
:10371000771F881F991F1A9469F760957095809597
:1037200090959B01AC01BD01CF01089597FB092E37
:1037300005260ED057FD04D0D7DF0AD0001C38F480
:1037400050954095309521953F4F4F4F5F4F0895CD
:10375000F6F790958095709561957F4F8F4F9F4FAD
:103760000895EE0FFF1F0590F491E02D0994F89451
:02377000FFCF89
:103772005B467265713A2000487A00467265713A7A
:1037820020004C697665204D6F6465004669786556
:1037920064204D6F6465004C697665204D6F6465E9
:1037A200204F4E00496E76616C69642066696C65D3
:1037B200000220004E6F206361726420666F756E96
:1037C20064002F00202B2C3B5B3D5C5D222A3A3C9F
:1037D2003E3F7C00200053020000FFFFFFFFFFFF7F
:1037E200FFFFF0F8FCFEFCF8F0001400212121217B
:1037F2001B1714141211100F0E0D0C0B0A090808D6
:10380200080808080808010204081020DC00E90082
:10381200F70006011501260137014A015D01720117
:1038220088019F0100000000210DF41900004000F2
:0A3832001400540000000000A81963
:00000001FF
