:100000000C946A000C9492000C9492000C94920050
:100010000C9492000C9492000C9492000C947A0E22
:100020000C9492000C9492000C9492000C94A30EE9
:100030000C9492000C9492000C9492000C949200F8
:100040000C94AA240C9492000C9492000C949200AC
:100050000C9492000C9492000C9492000C949200D8
:100060000C9492000C9492000000000024002700E1
:100070002A0000000000250028002B0000000000DE
:1000800023002600290004040404040404040202DA
:100090000202020203030303030301020408102007
:1000A0004080010204081020010204081020000012
:1000B0000007000201000003040600000000000029
:1000C00000008002C705A90FB40FBF0FCE0FD90FD4
:1000D000E40F902611241FBECFEFD8E0DEBFCDBFC6
:1000E00012E0A0E0B1E0E8E2F1E502C005900D9277
:1000F000A234B107D9F715E0A2E4B2E001C01D9225
:10010000AC37B107E1F710E0C4EDD0E004C02297AE
:10011000FE010E948E28C23CD107C9F70E94FE044E
:100120000C9492280C9400000F931F93CF93DF93AD
:10013000689F8001699F100D789F100D1124C801E0
:100140000E94B000EC01009729F060E070E0A80187
:100150000E94C801CE01DF91CF911F910F910895A8
:10016000CF93DF93BC018230910510F462E070E020
:10017000A0917A05B0917B05ED01E0E0F0E040E070
:1001800050E021C0888199818617970769F48A8198
:100190009B81309719F09383828304C090937B05F1
:1001A00080937A05FE0134C06817790738F4411549
:1001B000510519F08417950708F4AC01FE018A81F6
:1001C0009B819C01E9012097E9F641155105A9F1B0
:1001D000CA01861B970B049708F4BA01E0E0F0E02F
:1001E0002AC08D919C91119784179507F9F4641793
:1001F000750781F412968D919C911397309719F0A1
:100200009383828304C090937B0580937A05FD01DC
:1002100032964CC0CA01861B970BFD01E80FF91FEF
:100220006193719302978D939C9340C0FD018281ED
:1002300093819C01D9011097A1F680917805909146
:100240007905892B41F48091CD019091CE01909355
:100250007905809378054091CF015091D0014115E7
:10026000510541F44DB75EB78091CB019091CC011F
:10027000481B590B2091780530917905CA01821BE2
:10028000930B8617970780F0AB014E5F5F4F841783
:10029000950750F0420F531F50937905409378050E
:1002A000F9016193719302C0E0E0F0E0CF01DF91CA
:1002B000CF910895CF93DF93009709F450C0EC01DC
:1002C00022971B821A82A0917A05B0917B05109724
:1002D00009F140E050E0AC17BD0708F1BB83AA83E9
:1002E000FE0121913191E20FF31FAE17BF0779F4A0
:1002F0008D919C911197280F391F2E5F3F4F3983A5
:10030000288312968D919C9113979B838A83411524
:10031000510571F4D0937B05C0937A0520C01296E5
:100320008D919C911397AD01009711F0DC01D3CF13
:10033000FA01D383C28321913191E20FF31FCE17CB
:10034000DF0769F488819981280F391F2E5F3F4F9D
:10035000FA01318320838A819B8193838283DF9199
:10036000CF910895FB01DC0104C08D9101908019AB
:1003700021F441505040C8F7881B990B0895FB01A8
:10038000DC0102C001900D9241505040D8F7089511
:10039000DC0101C06D9341505040E0F70895FB012E
:1003A000DC018D9181341CF08B350CF4805E619101
:1003B00061341CF06B350CF4605E861B611189F3AF
:1003C000990B0895FB01DC0101900D920020E1F7EB
:1003D0000895FC0181E090E00190061609F4CF0138
:1003E0000020D1F701970895BC0182E492E04AE031
:1003F00050E00E9490270895BC0182E492E04AE018
:1004000050E00E94F3270895682F82E492E00E9452
:1004100015270895BC0182E492E00E940628089501
:10042000282F462F82E492E0622F0E94E110089567
:100430000F931F93CF93DF93142F0E941002C0E0FD
:10044000D0E0012F112707FD109504C080E20E9423
:1004500004022196C017D107CCF3DF91CF911F91F1
:100460000F910895EF92FF920F931F93F82EE62EAF
:1004700089010E9418028F2D6E2D0E941002C80162
:100480000E94F4011F910F91FF90EF9008951F9328
:10049000142F0E941002812F0E9404021F910895C0
:1004A00082E492E00E94101108950F931F938C0133
:1004B0000E94500280E060E00E941002C8010E9489
:1004C0000A021F910F9108950F931F9302E412E007
:1004D000C80160E142E020E00E941811C8010E94BA
:1004E0001011C80161E041ED51E00E94AF10C80158
:1004F00062E049ED51E00E94AF101F910F91089505
:10050000CF92EF920F9382E492E064E045E026E020
:1005100007E058E0E52E39E0C32E0E94CE110F917E
:10052000EF90CF9008956F927F928F929F92BF929B
:10053000CF92DF92EF92FF920F931F93CF93DF93AF
:1005400080E091E00E9455028091E2019091E301E8
:100550000E94FC0188E091E00E940A028FE060E0C6
:100560004DE50E94470280E061E00E94100200E039
:1005700010E005C081E00E9404020F5F1F4F8091D0
:100580006102992787FD9095081719079CF3009140
:100590005702109158028FE7D80111968C93609101
:1005A000E2017091E301882777FD8095982F0E94E2
:1005B0005F0FA0E0B0E0F80186839783A087B18742
:1005C0008091E2019091E3010E94E30D80916F0020
:1005D000826080936F00BB24B394EE24FF248701D4
:1005E000C1E0D0E0A1E08A2E912CF8EE6F2EF3E06E
:1005F0007F2E0E94920FF1EAEF16F6E8FF06F1E077
:100600000F07F0E01F0708F40FC1813009F41FC184
:10061000823009F4B4C0843039F0EE24FF2487011D
:10062000E1E0CE2ED12C1AC1BB2041F580E091E053
:100630000E9455028091E2019091E3010E94FC0129
:1006400088E091E00E940A028FE060E04DE50E94A0
:10065000470280E061E00E94100200E010E005C067
:1006600081E00E9404020F5F1F4F80916102992771
:1006700087FD9095081719079CF3E3C08BE091E084
:100680000E9455028091E2019091E3010E94FC01D9
:1006900088E091E00E940A0280E061E00E9410027E
:1006A00000E010E007C082E492E061E00E941527BC
:1006B0000F5F1F4F80916102992787FD9095081762
:1006C00019078CF380E061E04BE50E9447028FE060
:1006D00061E04DE50E944702BB24B5C080E061E0C7
:1006E0000E94100282E492E00E94840F80E061E0A8
:1006F0004BE50E9447028FE061E04DE50E94470212
:10070000AAC08091E2019091E3018C0D9D1D909310
:10071000E3018093E201895E934024F07092E3014B
:100720006092E20185E090E0C80ED91E2091E201BE
:100730003091E30187E060E047E00E94320288E008
:1007400091E00E940A0200915702109158026091B4
:10075000E2017091E301882777FD8095982F0E9430
:100760005F0FA0E0B0E0F80186839783A087B18790
:100770008091E2019091E3010E94E30D6CC0BB20E7
:1007800099F480E061E00E94100282E492E00E940D
:10079000750F80E061E04BE50E9447028FE061E069
:1007A0004DE50E9447023AC08091E2019091E30139
:1007B0008C1B9D0B9093E3018093E20118161906A0
:1007C00024F09092E3018092E20125962091E201CB
:1007D0003091E30187E060E047E00E94320288E068
:1007E00091E00E940A020091570210915802609114
:1007F000E2017091E301882777FD8095982F0E9490
:100800005F0FA0E0B0E0F80186839783A087B187EF
:100810008091E2019091E3010E94E30DEE24FF2418
:10082000870171E0C72ED12C88EE93E00E945925F4
:1008300088EE93E0A0E0B0E0E80EF91E0A1F1B1F4F
:10084000D8CEBB24B39461E0C62ED12C04C0BB200B
:1008500009F057CF43CFEE24FF248701C1E0D0E059
:10086000E3CF8091E101882309F03DC082E191E06E
:100870000E94550280E061E00E941002E0915F0258
:10088000F09160028789882349F1808D918D0E94C3
:10089000F401E0915F02F0916002808D918D0197EB
:1008A00019F48AE191E002C082E291E00E940A021A
:1008B000E0915F02F0916002828D938D0E94F401BD
:1008C000E0915F02F0916002828D938D019719F49F
:1008D0008BE291E005C080E391E002C0CF01069673
:1008E0000E940A020895813019F486E391E002C063
:1008F00080E491E00E9455020895CF93DF930E9417
:10090000920F823049F48091E101823019F4109203
:10091000E1010DC08F5F09C0813081F48091E10158
:10092000882311F482E001C081508093E1010E948C
:10093000310464EB70E080E090E04CC0843009F05A
:100940004BC08091E101823049F466E970E080E0BB
:1009500090E00E9400250E94930238C0813021F56A
:1009600066E970E080E090E00E9400258BE491E071
:100970000E94550280E061E00E941002C0E0D0E0D9
:1009800004C081E00E9404022196809161029927AF
:1009900087FD9095C817D907A4F30E940A0C86E337
:1009A00091E00E94550212C066E970E080E090E09C
:1009B0000E940025E0915F02F09160028789882300
:1009C00019F00E940B0A02C00E94220B6CE271E037
:1009D00080E090E00E940025DF91CF9108950E9471
:1009E00064020E94E20C0E94F10C0E9405050E9424
:1009F000D10B0E94B80C0E94310408950E94632517
:100A00000E94EF040E947D04FDCF8AE090E00E94E6
:100A1000B00080935702909358028AE090E00E94C1
:100A2000B000FC0190935A0280935902A0915702A2
:100A3000B09158021C9210820895E0915702F091F3
:100A400058028081882319F00E94FF0C05C0809114
:100A50006F008D7F80936F00E0915902F0915A02F0
:100A60008081882361F082819381A481B58180583F
:100A70009E43A040B04018F40E94580D0895809104
:100A800070008D7F809370000895E0915702F0917F
:100A900058021082E0915902F0915A0210820E948D
:100AA0001D050895982F8857823020F09B3711F04C
:100AB0009C3711F40E9445050895982FE091570244
:100AC000F09158028081891721F410820E941D053F
:100AD0000895E0915902F0915A028081891719F422
:100AE00010820E941D050895382F462F662319F4A1
:100AF0000E945D050895A0915702B09158022C9173
:100B0000281719F4CD01622F1BC0E0915902F09112
:100B10005A026081681711F4CF0112C0222311F428
:100B2000CD010DC0662311F4CF0109C08AE0019008
:100B30000D928150E1F78091590290915A02632FF2
:100B40000E941B0F0E941D050895FC019081892FB2
:100B50008F708230D8F49C3F19F40E9445050895A7
:100B6000892F82958F70893029F4818162810E945A
:100B700074050895883021F481810E945D050895EF
:100B80008B3021F4818162810E9452050895109278
:100B900067021092890410928A0489E18093AC0460
:100BA0001092AF0488EE91E090936302809362020A
:100BB0001092B5041092B6041092B4041092B304CB
:100BC00080EF91E09093B2048093B1040895895B23
:100BD0009D4F0E94E5120895895B9D4F0E948513E9
:100BE000089504960E94E0190895DF93CF930F9221
:100BF000CDB7DEB769830496BE016F5F7F4F41E0DA
:100C000050E00E94E0190F90CF91DF910895EF928C
:100C1000FF920F931F93CF93DF937C018A01C091C2
:100C20005F02D09160028881998168177907B8F0D6
:100C30006C8D7D8D85EB94E040E051E00E949B152A
:100C400099838883E0915F02F091600280819181B5
:100C5000892B19F460E070E030C060E070E06F5FF5
:100C60007F4FD701A60FB71F615070402C912F778F
:100C7000F701E60FF71F808190E09695982F88275F
:100C800097958795820F911DF801918380838C91B0
:100C900087FD02C081E801C081E9D80112968C93DA
:100CA0001297F701E60FF71F828113968C93139723
:100CB000838114968C936C5F7F4FCB01DF91CF9132
:100CC0001F910F91FF90EF9008952F923F924F92B6
:100CD0005F926F927F928F929F92AF92BF92CF92CC
:100CE000DF92EF92FF920F931F93DF93CF93CDB7D5
:100CF000DEB728970FB6F894DEBF0FBECDBF88E5EC
:100D000091E00E94550200E010E007C0802F61E0F2
:100D100041E00E9447020F5F1F4F809161029927B7
:100D200087FD9095081719078CF30E94F2246D83B4
:100D30007E838F8398870E94F22469837A838B83D2
:100D40009C8366247724430122243324210104C098
:100D5000AD82BE82CF82D8860E94F2245B016C01F4
:100D60000E94920F282FD601C50186199709A8095C
:100D7000B90985369105A105B10520F1243099F412
:100D80000E94450585EB94E040E050E060E070E0B3
:100D90000E94CC14E0915F02F091600211821082F7
:100DA00011A210A2E8C0213029F482E492E00E944E
:100DB000840F06C0223031F482E492E00E94750F65
:100DC00035014601D601C50182199309A409B50967
:100DD000895E9340A040B04008F45DC0C601B501F3
:100DE00029813A814B815C81621B730B840B950BCB
:100DF00028EE33E040E050E00E944F2879018A015C
:100E0000E0915F02F091600262A173A184A195A1BB
:100E100028EE33E040E050E00E944F282901C7014E
:100E20006CE370E00E9428289B0182E060E04DE0C6
:100E30000E9432028AE30E940402C7016CE370E060
:100E40000E9428288C018A30910518F480E30E94C2
:100E50000402C8010E94F4018FE20E940402C20150
:100E60006CE370E00E942828CB010E94F4018AE321
:100E70000E940402C2016CE370E00E9428288C01E9
:100E80008A30910518F480E30E940402C8010E9490
:100E9000F40115012601A60195018D819E81AF8186
:100EA000B885281B390B4A0B5B0B00915F02109130
:100EB0006002D80112966D917C911397FB0180819D
:100EC0009181A0E0B0E082179307A407B50708F06E
:100ED00043CFF80186A197A1A0A5B1A5820F931FCA
:100EE000A41FB51F86A397A3A0A7B1A70480F5816F
:100EF000E02DDB0112968C918083F801A481B581ED
:100F000082819381FC01838111968C93F801A481E5
:100F1000B58182819381FC01848112968C93D801E2
:100F200014968D919C9115970E94A50500915F02E2
:100F300010916002F80160A171A142815381848DFA
:100F4000958D0E940706D80191969C938E93909759
:100F5000E0915F02F091600280819181892B09F01C
:100F6000F7CE0E94450585EB94E040E050E060E05C
:100F700070E00E94CC1428960FB6F894DEBF0FBE26
:100F8000CDBFCF91DF911F910F91FF90EF90DF9038
:100F9000CF90BF90AF909F908F907F906F905F9019
:100FA0004F903F902F900895BF92CF92DF92EF9293
:100FB000FF920F931F93DF93CF93CDB7DEB7A09728
:100FC0000FB6F894DEBF0FBECDBF7C01FB01B42E7F
:100FD00019821A8280818F32B1F48181882399F439
:100FE0008701095D1D4FC8010E94A517C801B701FF
:100FF0000E94AF17882379F1BB2079F1F801808135
:10100000807749F123C08701095D1D4F6E01089467
:10101000C11CD11CC601B801AF0121E00E943F19DB
:101020008823C9F089818077B1F0D801F60180E288
:1010300001900D928150E1F7BB2079F087E292E0B8
:10104000E80EF91EF7018081807739F0109366056C
:101050000093650502C080E001C081E0A0960FB654
:10106000F894DEBF0FBECDBFCF91DF911F910F91DE
:10107000FF90EF90DF90CF90BF9008950F931F9354
:10108000A0915F02B09160025C96EC915C975D96D6
:10109000FC9180E091E0DF019C011D9221503040E5
:1010A000E1F700915F0210916002D8015C966D91AA
:1010B0007C915D9785EB94E040E051E00E949B15A8
:1010C000F8019183808300915F0210916002D80142
:1010D0005C96ED91FC915D978381208130E040E04A
:1010E00050E0522F442733272227280F311D411D5E
:1010F000511D818190E0A0E0B0E0DC0199278827B4
:10110000280F391F4A1F5B1F828190E0A0E0B0E0EA
:10111000BA2FA92F982F8827280F391F4A1F5B1F26
:10112000D80192962D933D934D935C93959784E0CF
:1011300090E091969C938E93909796961D921D9217
:101140001D921C92999712964D915C911397CF0125
:1011500064E070E00E940706F80191A380A31F914C
:101160000F910895EF92FF920F931F93CF93DF9308
:10117000E5EDF4E001900020E9F73197E55DF440FA
:101180009F012051304037FF03C020E030E00EC007
:10119000BF016A5070400E943C28039797FF03C02C
:1011A00080E090E004C0821793070CF0C9018B52D5
:1011B0009B4F0E94550280E061E00E9410028091E6
:1011C000B504807759F5E0915F02F091600262A169
:1011D00073A184A195A128EE33E040E050E00E9485
:1011E0004F2879018A01C9016CE370E00E94282828
:1011F000CB010E94F4018AE30E940402C7016CE360
:1012000070E00E942828EC018A30910518F480E3F0
:101210000E940402CE010E94F40104C08BE591E01B
:101220000E940A02DF91CF911F910F91FF90EF90E2
:101230000895CF93DF938091B504282F30E0C90142
:1012400086709070892B31F529C020E030E0F901DB
:10125000EB52FB4F8081882329F02F5F3F4F2436CC
:101260003105A9F7F901EB52FB4F8FE28083118220
:1012700082E011C085ED94E06EE270E00E94E90129
:10128000EC0162E671E00E94CF01892B19F418820B
:1012900081E001C080E0DF91CF9108952077307028
:1012A000232B99F6E7CFFF920F931F93CF93DF93F2
:1012B000F82E0091B9041091BA048091B5048823E6
:1012C00021F085EB94E00E94A51789E894E040E0C6
:1012D00050E060E070E00E94CC1485ED94E067E699
:1012E00071E00E94E201CFEFDFEF3EC08091B904D0
:1012F0009091BA048017910719F5D7FD3FC085EB8F
:1013000094E00E94A51785EB94E069E874E0AE01D3
:1013100021E00E94C61885EB94E065ED74E044E698
:1013200050E00E940A200E9419098823E1F1FF2061
:10133000D1F18091B5048077B1F50E943E0833C0A9
:1013400085EB94E065ED74E044E650E00E940A20ED
:101350000E941909882321F0C091B904D091BA04E0
:1013600085EB94E00E94A51785EB94E069E874E0B2
:1013700041E00E946218882309F0B8CF85EB94E021
:1013800069E874E0A80121E00E94C61885EB94E0AA
:1013900065ED74E044E650E00E940A200E941909BD
:1013A00080E090E002C081E090E0DF91CF911F915A
:1013B0000F91FF9008950F931F93082F8091B5040C
:1013C0008823D9F016C085EB94E065ED74E044E61F
:1013D00050E00E940A200E941909182F882349F022
:1013E0000023A9F08091B504807789F40E943E081B
:1013F0000EC085EB94E00E94A51785EB94E069E8A8
:1014000074E041E00E9462188823E9F610E0812F21
:101410001F910F9108954F925F926F927F928F92DA
:101420009F92BF92CF92DF92EF92FF920F931F9302
:10143000CF93DF930E94F2246B017C0181E00E9434
:10144000DB0980E090E00E94B208B6E94B2E512CF7
:10145000C0E0D0E00E94F2243B014C010E94920FB8
:10146000B82ED401C3018C199D09AE09BF09895555
:101470009240A040B04048F08E010F5F1F4FCE0158
:101480000E94B20874016301E80184E0B81609F013
:1014900067C066E970E080E090E00E9400258091DE
:1014A000B504807709F453C080918904807609F4EB
:1014B00041C082E692E065ED74E040E00E94D4070E
:1014C00081E00E94DB098091B504882349F080E027
:1014D00090E00E94B20874016301C0E0D0E039C01E
:1014E00089E894E065ED74E044E650E00E940A204B
:1014F00000918D0410918E0482E692E068E671E01E
:1015000040E00E94D40785EB94E00E94A51785EB8C
:1015100094E069E874E0A80121E00E94C61885EB18
:1015200094E065ED74E044E650E00E940A200E94D9
:1015300019090FC00E9450028AE691E00E945502EC
:1015400064EF71E080E090E00E94002502C00E94FC
:1015500065066CE271E080E090E00E9400257ACFA1
:1015600022E0B216E1F466E970E080E090E00E94CB
:10157000002581E00E94DB09882309F05CC085EB2F
:1015800094E00E94A51789E894E040E050E060E014
:1015900070E00E94CC1481E00E94DB094CC081E025
:1015A000B81609F057CF0E94F2246B017C0181E04C
:1015B0000E945309882369F580918904807649F552
:1015C00089E894E065ED74E044E650E00E940A206A
:1015D00000918D0410918E0482E692E068E671E03D
:1015E00040E00E94D40785EB94E00E94A51785EBAC
:1015F00094E069E874E0A80121E00E94C61885EB38
:1016000094E065ED74E044E650E00E940A200E94F8
:1016100019090E94F2246C197D099201261B370BCF
:1016200037FF02C020E030E0B901882777FD8095C0
:10163000982F0E94002580E090E00E94B20874017B
:10164000630106CFCF93DF9388E791E00E945502B4
:1016500089EA94E060EB74E04AE022E00E94B9136A
:10166000882309F495C089E894E00E94A51782E6D2
:1016700092E061E00E948623882341F482E692E0B2
:1016800060E00E948623882309F482C0C9E8D4E080
:10169000CE0162E672E00E94AF17882309F478C099
:1016A00080918904807709F473C0D0936605C09354
:1016B000650528C080915F0290916002069669E8F6
:1016C00071E01DC080916702882341F480915F0220
:1016D00090916002069667E971E011C080918904DB
:1016E00020915F0230916002882329F0C90106969B
:1016F00065EA71E004C0C90106966EEA71E00E94D5
:10170000E2014CC081E00E94DB0990E00097C9F043
:101710008130910551F4E0915F02F0916002808D7B
:10172000918D0196918F808FEDCF029759F7E091BF
:101730005F02F0916002828D938D0196938F828F6C
:10174000E1CF85EB94E00E94A51789E894E040E0A2
:1017500050E060E070E00E94CC1485ED94E067E614
:1017600071E00E94E201E0915F02F0916002808DE1
:10177000918D892B31F4CF0106966CEB71E00E94BC
:10178000E201E0915F02F091600281E0878B06C088
:101790008091AC04882309F495CF8CCFDF91CF9151
:1017A00008950F931F938AE290E00E94B0008C018D
:1017B0009093600280935F0280E091E061E070E0CE
:1017C0000E949400F801848F958F00915F02109120
:1017D000600285E090E00E94B000F801828393836C
:1017E00000915F021091600283E090E00E94B000DF
:1017F000F80184839583E0915F02F0916002168284
:10180000178A118E108E138E128E0E94220B1F913A
:101810000F9108959F92AF92BF92CF92DF92EF9275
:10182000FF920F931F93CF93DF93A0915702B09134
:101830005802E0915902F0915A0210821C920E94C3
:10184000F2245B016C0182E0982E0E94F2247B015D
:101850008C01DC01CB018A199B09AC09BD098739D0
:101860009105A105B10508F10E94920F843071F431
:101870000E944505DF91CF911F910F91FF90EF904E
:10188000DF90CF90BF90AF909F900895813029F462
:1018900082E492E00E94840F06C0823021F482E448
:1018A00092E00E94750F570168018091C00087FF88
:1018B000CCCF9091C600892F881F8827881F282F9A
:1018C00030E021153105C1F0892F807F803861F02B
:1018D000803951F0803B41F0803E31F0E0915D0273
:1018E000F0915E02108208C0E0915D02F0915E020C
:1018F0009083918292821582E0915D02F0915E0266
:101900008081882309F4A1CF232B89F4858103806A
:10191000F481E02DE80FF11D9083E0915D02F091DC
:101920005E0285818F5F8583818181508183C09133
:101930005D02D0915E028981882309F086CFA09153
:101940005B02B0915C0288818C93EB81FC81808189
:1019500011968C931197EB81FC81818112968C9367
:1019600012978A8189831D82CD010E94A5056DCFC2
:101970000F931F931092C5008FE18093C40088E1FC
:101980008093C10086E08093C20086E090E00E94D0
:10199000B0008C0190935E0280935D02FC01108286
:1019A00082E090E00E94B000F8018383948383E09A
:1019B00090E00E94B00080935B0290935C021F91C4
:1019C0000F9108951092800088E08093810010921A
:1019D0006F0082E08093B0001092B100109270000E
:1019E0000895529A8EE060E00E949E2581E160E0B9
:1019F0000E949E2580E160E00E949E250895E0916E
:101A00005702F0915802228133814481558174E05C
:101A1000220F331F441F551F7A95D1F763E0569567
:101A20004795379527956A95D1F7213080E038079B
:101A300081E0480780E0580714F48AE021C093E071
:101A400055954795379527959A95D1F7213080E0A0
:101A5000380781E0480780E0580714F48BE010C095
:101A600082E055954795379527958A95D1F721308E
:101A700080E0380781E0480780E058071CF48CE0DC
:101A80008093810021503040404050403093890085
:101A90002093880086819781A085B1850097A10554
:101AA000B10529F080916F00826080936F000895E6
:101AB000E0915902F0915A0222813381448155818B
:101AC000A4E0220F331F441F551FAA95D1F72130E0
:101AD00081E0380780E0480780E0580714F481E08F
:101AE0005CC073E055954795379527957A95D1F762
:101AF000213081E0380780E0480780E0580714F47F
:101B000082E04BC062E055954795379527956A95D9
:101B1000D1F7213081E0380780E0480780E058079E
:101B200014F483E03AC055954795379527952130B1
:101B300081E0380780E0480780E0580714F484E02B
:101B40002CC05595479537952795213081E038076A
:101B500080E0480780E0580714F485E01EC05595E2
:101B6000479537952795213081E0380780E0480771
:101B700080E0580714F486E010C0A2E05595479520
:101B800037952795AA95D1F7213081E0380780E075
:101B9000480780E058071CF487E08093B10021508B
:101BA0003040404050402093B30086819781A0850B
:101BB000B1850097A105B10529F080917000826080
:101BC0008093700008959C0140E050E060E472E46E
:101BD0008FE090E00E944F2864E0220F331F441FE3
:101BE000551F6A95D1F793E05695479537952795F8
:101BF0009A95D1F7213080E0380781E0480780E0EE
:101C0000580714F48AE021C083E05595479537952D
:101C100027958A95D1F7213080E0380781E0480781
:101C200080E0580714F48BE010C0B2E0559547955A
:101C300037952795BA95D1F7213080E0380781E0B4
:101C4000480780E058071CF48CE080938100215005
:101C500030404040504030938900209388000895E0
:101C60000F931F93CF93DF938C01609161027727CD
:101C700067FD7095A4E0660F771FAA95E1F78827A6
:101C800077FD8095982FF801268137814085518511
:101C90000E940928672F782F892F992787FD9A9509
:101CA000882777FD8095982FF801218130E040E06A
:101CB00050E00E940928672F782F892F992787FDE8
:101CC0009A95EB016A30710514F4CAE0D0E082E025
:101CD00061E00E94DD25CE010E94592582E060E08E
:101CE0000E94DD25CE010E945925DF91CF911F91E1
:101CF0000F9108951F920F920FB60F9211242F93F8
:101D00003F934F935F936F937F938F939F93AF9383
:101D1000BF93EF93FF938091590290915A020E94D2
:101D2000300EB198FF91EF91BF91AF919F918F913C
:101D30007F916F915F914F913F912F910F900FBEC7
:101D40000F901F9018951F920F920FB60F921124AB
:101D50002F933F934F935F936F937F938F939F93B3
:101D6000AF93BF93EF93FF938091570290915802E6
:101D70000E94300EB998FF91EF91BF91AF919F9162
:101D80008F917F916F915F914F913F912F910F9024
:101D90000FBE0F901F901895CF93DF93C82FD0E000
:101DA000E997D7FD20C0CE016CE070E00E943C288E
:101DB000FB01E25FFD4F208130E0CE016CE070E07E
:101DC0000E943C28FC01EE0FFF1FEC5EFD4F80815E
:101DD0009181AC01249FC001259F900D349F900DEF
:101DE00011249C0121C0CE01809590956CE070E09B
:101DF0000E943C28DB011196FD01EE0FFF1FEA0F48
:101E0000FB1FEE0FFF1FEE0FFF1FEC0FFD1FEE0F6E
:101E1000FF1FEC5EFD4FA25FBD4F6C9180819181F1
:101E200070E00E9428289B0140E050E0B901CA01FF
:101E3000DF91CF910895DF92EF92FF920F931F935E
:101E4000CF93DF93EC01862FD42E68830E94CC0EB3
:101E50007B018C0160E472E48FE090E0A8019701BF
:101E60000E944F282A833B834C835D83C801B701BE
:101E700024E630E040E050E00E947128F9012A3168
:101E800031051CF020E030E007C0EC50FE4F90819F
:101E900083E0989F90011124C901A0E0B0E08E83F7
:101EA0009F83A887B987D6948FE7D80ED982DF9110
:101EB000CF911F910F91FF90EF90DF90089524E64E
:101EC00030E040E050E00E947128F9012A313105EC
:101ED0001CF020E030E007C0EC50FE4F908183E022
:101EE000989F90011124C90108958091610288236F
:101EF00051F0815061E040E20E944702809161020E
:101F0000815080936102089580916102803149F08F
:101F100061E041E00E944702809161028F5F8093FF
:101F2000610208958EE00E943126892B11F481E030
:101F3000089581E10E943126892B11F482E00895F1
:101F400080E10E943126892B11F085E0089584E01C
:101F500008950F9389E395E060E040E020E000E021
:101F60000E9484260F9108950F938FE395E060E01F
:101F700040E020E000E00E9484260F9108950F9336
:101F80008DE495E060E040E020E000E00E948426DF
:101F900085E495E00E94E1260F9108950F9383E573
:101FA00095E060E040E020E000E00E9484260F9190
:101FB00008950F9389E595E060E040E020E000E0BF
:101FC0000E9484260F9108950F938FE595E060E0BD
:101FD00040E020E000E00E9484260F9108950F93D6
:101FE0001F938C01FC01868160E00E94DD2581E069
:101FF00090E00E945925F801868161E00E94DD256C
:1020000081E090E00E945925F801868160E00E94FD
:10201000DD2584E690E00E9459251F910F910895D7
:10202000CF92DF92EF92FF920F931F93CF93DF93A4
:10203000D82EC92E282F392FC9018C01C0E0D0E03D
:10204000E62EFF24F801878161E00E949E25B701FA
:102050000C2E02C0759567950A94E2F76170F8013D
:1020600087810E94DD2521960F5F1F4FC830D10563
:1020700049F78D2D9C2D0E94EF0FDF91CF911F917D
:102080000F91FF90EF90DF90CF900895CF92DF9265
:10209000EF92FF920F931F93CF93DF93D82EC92E09
:1020A000282F392FC9018C01C0E0D0E0E62EFF2493
:1020B000F801878161E00E949E25B7010C2E02C0C5
:1020C000759567950A94E2F76170F80187810E941F
:1020D000DD2521960F5F1F4FC430D10549F78D2DA7
:1020E0009C2D0E94EF0FDF91CF911F910F91FF90D8
:1020F000EF90DF90CF9008951F93CF93DF93EC0183
:10210000162F8C81642F0E94DD258D818F3F19F061
:1021100060E00E94DD258F8584FF05C0CE01612F20
:102120000E9410100EC0612F70E084E075956795D5
:102130008A95E1F7CE010E944610CE01612F0E94E0
:102140004610DF91CF911F91089541E00E947C10CD
:1021500081E090E0089540E00E947C100895EF92A5
:10216000FF920F931F93CF93DF938C017A016770D7
:10217000660F660F660F60640E94AB10C0E0D0E08F
:10218000D801ED91FC91D701AC0FBD1F0190F081FA
:10219000E02DC8016C9109952196C830D10581F7D1
:1021A000DF91CF911F910F91FF90EF900895FC0167
:1021B0006089862F8460808B6C60CF010E94AB1099
:1021C0000895DF93CF93CDB7DEB728970FB6F89475
:1021D000DEBF0FBECDBF9C01FE013196A4E3B2E08D
:1021E00088E00D9001928150E1F7F9018389481749
:1021F00010F0482F4150E42FF0E0EE0FFF1FEC0FDE
:10220000FD1F8181680F6068C9010E94AB1028968C
:102210000FB6F894DEBF0FBECDBFCF91DF9108950A
:1022200061E00E94AB1080ED97E00E94592508956F
:10223000CF93DF93EC01423018F08F8588608F8751
:102240004B8B1C8A222329F0413019F48F8584603E
:102250008F8780E593EC0E9459258C8160E00E9475
:10226000DD258E8160E00E94DD258D818F3F19F094
:1022700060E00E94DD256F8564FD1DC0CE0163E036
:102280000E94461084E991E10E945925CE0163E045
:102290000E94461084E991E10E945925CE0163E035
:1022A0000E94461086E990E00E945925CE0162E026
:1022B0000E94461016C06062CE010E94AB1084E9F5
:1022C00091E10E9459256F856062CE010E94AB109A
:1022D00086E990E00E9459256F856062CE010E94D8
:1022E000AB106F856062CE010E94AB1084E0888BDA
:1022F000CE010E94D710CE010E94101182E0898B7E
:10230000CE0166E00E94AB10DF91CF9108956F92ED
:102310007F928F92AF92CF92EF920F931F93DF93A2
:10232000CF93CDB7DEB73C01162F842FF301448342
:1023300025830683E782C086A18682869D85938752
:102340009E8594879F8595879889968761E00E94EE
:102350009E25F30185818F3F19F061E00E949E2543
:10236000F301868161E00E949E25112319F0F3019B
:10237000178603C080E1F3018787C30160E141E074
:1023800020E00E941811CF91DF911F910F91EF90E3
:10239000CF90AF908F907F906F9008958F92AF9273
:1023A000CF92EF920F931F93CF93DF93DC01362FE1
:1023B000542F722F102FAE2C8C2C13961C921E9221
:1023C000129780E392E011969C938E9300D000D0F8
:1023D000EDB7FEB73196CDB7DEB719821182128202
:1023E0001382CD0161E0432F2FEF052FE72EC12E81
:1023F0000E9487110F900F900F900F90DF91CF9157
:102400001F910F91EF90CF90AF908F900895FF9212
:102410000F931F93CF93DF938B010E94F224EB0164
:10242000FF24FA9409C00E94F2246C1B7D0B6017F4
:10243000710710F080E008C0FEBC0DB407FEFDCFB0
:102440008EB58F3F81F781E0DF91CF911F910F9182
:10245000FF900895FC01348192E020E007C0253010
:1024600010F082E001C081E0990F280F931710F45B
:102470002730A8F330E0C9019595879580658CBD1C
:10248000209521702DBD828160E00E94DD25089598
:10249000FF920F931F93DF93CF9300D000D0CDB75F
:1024A000DEB78C01F62E29833A834B835C830E942E
:1024B0002A12C80168E572E00E9407128F2D80641D
:1024C0008EBD0DB407FEFDCFFE0131969E01235057
:1024D000304083818EBD0DB407FEFDCF3197E217EA
:1024E000F307B9F7FF2011F087E801C085E98EBD39
:1024F0000DB407FEFDCF8CE0F81631F48FEF8EBDE2
:102500000DB407FEFDCF8EB590E02FEF2EBD0DB4BC
:1025100007FEFDCF8EB587FF02C09150B9F7F801D5
:1025200085830F900F900F900F90CF91DF911F91A7
:102530000F91FF900895FC01828161E00E94DD25EA
:102540008FEF8EBD0DB407FEFDCF0895CF93DF93BF
:10255000EC01DA016EBD0DB407FEFDCF8C918EBD8E
:102560001196EC91119782E090E00DB407FEFDCF3B
:10257000EEBD22E08030920731F0FD01E80FF91F37
:10258000E0810196F2CF0DB407FEFDCF8FEF8EBD37
:102590000DB407FEFDCF8FEF8EBD0DB407FEFDCF4E
:1025A0008FEF8EBD0DB407FEFDCF8EB58D838F717D
:1025B000853011F481E006C083E18B83CE010E9457
:1025C0009B1280E0DF91CF910895CF92DF92EF923E
:1025D000FF920F931F93CF93DF93EC017A018B014E
:1025E00069018E81833039F059E0EE0CFF1C001F29
:1025F000111F5A95D1F7CE0168E1A80197010E94F9
:102600004812882319F086E08B830CC0CE016EEF50
:10261000A6010E94A612882329F0CE010E949B12D7
:1026200081E004C0CE010E949B1280E0DF91CF9137
:102630001F910F91FF90EF90DF90CF900895BF9280
:10264000CF92DF92EF92FF920F931F93CF93DF937E
:10265000EC016B017A010E94F2248B01BB24BA9435
:1026600009C00E94F224601B710B6D52714010F082
:1026700081E10BC0BEBC0DB407FEFDCF8EB58D83CE
:102680008F3F79F38E3F39F08FE08B83CE010E942C
:102690009B1280E030C0D7011197EF28D9F08FEF5F
:1026A0008EBD20E030E09FEF0BC00DB407FEFDCFE4
:1026B0008EB59EBDF601E20FF31F80832F5F3F4F63
:1026C0002A173B0790F30DB407FEFDCF8EB5AC0D76
:1026D000BD1D8C931D828FEF8EBD0DB407FEFDCF07
:1026E0008EB58FEF8EBD0DB407FEFDCF8EB5CE013A
:1026F0000E949B1281E0DF91CF911F910F91FF907B
:10270000EF90DF90CF90BF900895CF92DF92EF923D
:10271000FF920F931F93CF93DF93EC017A018B010C
:1027200069018E81833039F0B9E0EE0CFF1C001F87
:10273000111FBA95D1F7CE0161E1A80197010E945E
:102740004812882339F084E08B83CE010E949B12CB
:1027500080E006C0CE01B60140E052E00E941F13A7
:10276000DF91CF911F910F91FF90EF90DF90CF906D
:102770000895BF92CF92DF92EF92FF920F931F9333
:10278000CF93DF93EC01B22E1E821B827983688384
:102790004A830E94F2246B018A8161E00E949E2597
:1027A0008A8161E00E94DD252A9A229A239A259A3D
:1027B00080E48C8320E080E090E0253010F032E06F
:1027C00001C031E0230F8430910519F001962730C4
:1027D000A0F330E0C9019595879580658CBD209563
:1027E00021702DBD80E09FEF9EBD0DB407FEFDCF93
:1027F0008F5F8A30C9F709C00E94F2246C197D09E5
:10280000615D774010F081E063C0CE0160E020E0C0
:1028100030E040E050E00E944812813069F71FEF3D
:10282000CE0168E02AEA31E040E050E00E94481220
:10283000853011F481E00DC080E01EBD0DB407FEAF
:10284000FDCF9EB58F5F8430C1F79D839A3A31F4F6
:1028500082E08E838E81823051F40DC00E94F2247A
:102860006C197D09615D7740D8F282E031C0EE24B9
:10287000FF2487010FC0E12CF12C012D80E4182FDB
:1028800009C00E94F2246C197D09615D774010F047
:102890008AE01EC0CE0167E320E030E040E050E077
:1028A0000E944812CE0169E2A80197010E944812D5
:1028B000882339F78E81823031F5CE016AE320E03A
:1028C00030E040E050E00E944812882339F088E070
:1028D0008B83CE010E949B1280E01AC08FEF8EBDC9
:1028E0000DB407FEFDCF8EB5807C803C11F483E0F3
:1028F0008E8380E09FEF9EBD0DB407FEFDCF2EB509
:102900008F5F8330C1F7CE010E949B12BC8281E0B1
:10291000DF91CF911F910F91FF90EF90DF90CF90BB
:10292000BF900895FF920F931F93CF93DF938C0175
:10293000DB01EC0140E078E060E08EE2F82E888177
:102940008032E1F0683031F4FD01E40FF11DF082D6
:102950004F5F70E15881852F81548A3150F4272FC1
:1029600030E0F801848590E028233923232B09F0F7
:10297000505EFD01E40FF11D50834F5F6F5F2196A4
:102980006B30E9F6A40FB11D1C92842FDF91CF911B
:102990001F910F91FF9008952F923F924F925F9257
:1029A0006F927F928F929F92AF92BF92CF92DF925F
:1029B000EF92FF920F931F93CF93DF93EC015A0195
:1029C0006B012C843D844E845F848881882309F4C4
:1029D0009AC0411551056105710529F41C861D86B3
:1029E0001E861F868AC0682F83FF0BC0888D998D35
:1029F000AA8DBB8D8A159B05AC05BD0508F483C067
:102A000014C085FF12C0EE81FF818681978125E089
:102A1000880F991F2A95E1F7A0E0B0E08A159B0581
:102A2000AC05BD0508F46FC068C0288939894A899A
:102A30005B89EE81FF81848190E0099621503040CE
:102A40004040504039014A01082E04C096948794B2
:102A5000779467940A94D2F72F5F3F4F4F4F5F4FA1
:102A60000894A108B108C108D1088601750104C005
:102A700016950795F794E7948A95D2F70894A11CC8
:102A8000B11CC11CD11CE614F7040805190528F077
:102A9000211531054105510581F466FF05C0848D7E
:102AA000958DA68DB78D04C08C8D9D8DAE8DBF8DFF
:102AB0008C879D87AE87BF8716C0E618F708080980
:102AC000190911C04C855D856E857F858E819F813A
:102AD00094010E94CD210894E108F108010911092F
:102AE000181634F010C09CE0892E912C8C0E9D1E7F
:102AF000E114F1040105110529F7A88AB98ACA8AE7
:102B0000DB8A81E005C02C863D864E865F8680E0AC
:102B1000DF91CF911F910F91FF90EF90DF90CF90B9
:102B2000BF90AF909F908F907F906F905F904F90ED
:102B30003F902F9008952F923F924F925F926F9205
:102B40007F928F929F92BF92CF92DF92EF92FF92ED
:102B50000F931F93CF93DF938C013A01DC019C917B
:102B6000992309F4F6C012968C9180FFF2C00DC132
:102B7000F801208D318D428D538D80899189A289F4
:102B8000B389281B390B4A0B5B0BC301A0E0B0E0F3
:102B900082179307A407B507C8F017C085FF16C0B2
:102BA000D8011696ED91FC9117972681378195E013
:102BB000220F331F9A95E1F750968D919C91519772
:102BC000281B390B2615370508F439014B018CE019
:102BD000482E512C400E511E7301212CB2E03B2E89
:102BE000B0C0F8012089318942895389AFEFCA2EDC
:102BF000A1E0DA2EC222D3228081682F0680F781DD
:102C0000E02DDA01C90179E0B695A79597958795EA
:102C10007A95D1F765FF09C0448D558D668D778D06
:102C2000480F591F6A1F7B1F48C0B380B822C114C8
:102C3000D10481F5BB2071F5211531054105510500
:102C4000A1F466FF05C0448D558D668D778D07C054
:102C5000D8015C964D915D916D917C915F97F801E3
:102C6000448755876687778715C0D8011C964D9194
:102C70005D916D917C911F97CF0192010E94CD21B2
:102C800087FD67C0882331F4F8018081807709F4DB
:102C900060C05BC0D8011C964D915D916D917C9197
:102CA0001F9716968D919C9117970E94B321AB01A7
:102CB000BC014B0D511D611D711DC114D10491F456
:102CC000B0E0EB16B2E0FB0668F0F801C681D781F0
:102CD0008BA19CA1ADA1BEA1481759076A077B072C
:102CE00009F057C0D80116968D919C911797809640
:102CF00020E00E946E21009761F1A1014C195D094D
:102D0000E7014E155F0508F4EA019C012C0D3D1DFD
:102D1000C401B901AE010E94BF018C0E9D1E9E012F
:102D200040E050E0F80180899189A289B389820F3F
:102D3000931FA41FB51F808B918BA28BB38BEC1AB2
:102D4000FD0AE114F10409F04CCFA3014E195F090B
:102D500009C0D80111968C911197826011968C93BD
:102D60004FEF5FEFCA01DF91CF911F910F91FF905D
:102D7000EF90DF90CF90BF909F908F907F906F905B
:102D80005F904F903F902F900895892F93FDF0CE44
:102D900005CFE881F9810190F081E02DCE01940109
:102DA00009958823B1F2C0E0D2E0B7CFFF920F932C
:102DB0001F93DF93CF930F92CDB7DEB78C01FC0149
:102DC0002089318942895389DA01C901E5E0B69544
:102DD000A79597958795EA95D1F77FE0F72EF8228A
:102DE00011F06623D1F4C801BE016F5F7F4F41E04F
:102DF00050E00E949B15813019F020E030E023C0A4
:102E0000F80180899189A289B3894F96A11DB11DCE
:102E1000808B918BA28BB38B09C0205E3F4F4F4FAD
:102E20005F4FF801208B318B428B538B8F2D90E0BD
:102E300025E0880F991F2A95E1F78796F8012681EA
:102E40003781280F391FC9010F90CF91DF911F9152
:102E50000F91FF900895CF93DF93EC01262F8E8181
:102E60009F814C895D896E897F8980960E946E2141
:102E7000009719F420E030E00BC02C813D812F70C9
:102E80003070F5E0220F331FFA95E1F7280F391F54
:102E9000C901DF91CF9108950F931F93CF93DF93D3
:102EA0008C01FC018081882309F449C0828187FF5D
:102EB00038C0C80161E00E942B17EC010097C9F1EE
:102EC0008881853EB1F1F801808183FF08C0808D43
:102ED000918DA28DB38D8C8F9D8FAE8FBF8FF8019A
:102EE000848D958D9B8F8A8F848D958DA68DB78DC2
:102EF000CD01AA27BB279D8B8C8BE0916705F091B4
:102F00006805309751F0BE016A5E7F4FCE0148964A
:102F10000995888D998D9B8B8A8BF80182818F779B
:102F20008283F8018681978180960E9425218823DB
:102F300031F4F80181818160818380E001C081E00A
:102F4000DF91CF911F910F9108950F931F938C01E3
:102F50000E944C17F80110821F910F910895CF9392
:102F6000DF93FC01DB018081882399F480E2EF018B
:102F7000982F19929A95E9F77783668315966C9145
:102F8000603119F0603229F480E4808381E082832B
:102F900001C080E0DF91CF9108950F931F93CF93ED
:102FA000DF93EC01FB0180E2DE011D928A95E9F7D7
:102FB000668177817F836E835D834C83848D958D5D
:102FC000A68DB78D88879987AA87BB874F70507069
:102FD000FA0195E0EE0FFF1F9A95E1F7E60FF71F54
:102FE00082A983FD62C0982F9771988382A9887106
:102FF00011F4986098830B83022F10E0C80182734C
:103000009070892B21F08881817109F04EC02F705A
:103010002A832E813F81F90183A194A1A5A1B6A1A4
:103020008C8B9D8BAE8BBF8BFA0185E0EE0FFF1F63
:103030008A95E1F7E60FF71F83AD94ADA0E0B0E00D
:10304000BC0155274427EF5BFF4F80819181E154FC
:10305000F040A0E0B0E0482B592B6A2B7B2B04FFFB
:103060000BC0411551056105710541F1C9010E946F
:103070003123882319F519C04C8F5D8F6E8F7F8F98
:10308000ED5BFF4F80819181A281B381888F998F01
:10309000AA8FBB8F05FF0CC0488D598D6A8D7B8D23
:1030A000CE010E94CC14882319F4188280E001C05C
:1030B00081E0DF91CF911F910F9108958A818068FF
:1030C0008A83E8CFBF92CF92DF92EF92FF920F9365
:1030D0001F93CF93DF936C01EB01B42EFC01808131
:1030E000882309F03EC088818077D9F18889998941
:1030F000AA89BB898F719070A070B0700097A105EC
:10310000B10579F510E000E088899989AA89BB8921
:1031100025E0B695A795979587952A95D1F77C01D7
:10312000CE0160E00E94D616FC010097D1F090819C
:103130009923B9F09E3239F3953E29F3838583FDB7
:1031400008C00023C9F0CF010E94B41B181749F42E
:1031500013C08F30C1F696FFD7CF092F0F71158599
:10316000D3CF80E0DF91CF911F910F91FF90EF902F
:10317000DF90CF90BF900895C601BE01A7012B2D0F
:103180000E94CD17882371F381E0ECCFBF92CF92DC
:10319000DF92EF92FF920F931F93CF93DF936C0117
:1031A0008B01EA01B22EFC018081882309F04EC018
:1031B000FB018081807709F449C053C0209741F119
:1031C0002197AE0160E070E0219635E0440F551F75
:1031D000661F771F3A95D1F7C8010E94CC14882347
:1031E000A9F1C80160E00E94D616FC01009771F1B8
:1031F00083858F30A1F480818F71813081F4E584E3
:10320000CE01C531D10510F084E190E0F82E09C05F
:10321000C80140E050E060E070E00E94CC14EE2471
:10322000FF24C80160E00E94D616FC01009771F0EF
:103230008081853E59F0882349F08E3239F0FF2095
:1032400099F0CF010E94B41BE81671F080E0DF9185
:10325000CF911F910F91FF90EF90DF90CF90BF9093
:10326000089527FFABCFF2CFC601B801AE012B2DD9
:103270000F2D0E94CD17882351F381E0E8CF7F9274
:103280008F929F92AF92BF92CF92DF92EF92FF9276
:103290000F931F93DF93CF93CDB7DEB7E3970FB6AE
:1032A000F894DEBF0FBECDBF7C018B015BAB4AAB98
:1032B000722E1A8A1B8AFC018081882309F055C06E
:1032C000FB018081807709F450C064C03196FBAB6C
:1032D000EAABEAA9FBA980818F32C1F3F8016681CC
:1032E0007781882321F4C7010E94AF173FC08E0168
:1032F0000E5E1F4FC8010E94AF178823B1F142E351
:10330000842E912C8C0E9D1E6E010894C11CD11C24
:1033100032E1A32EB12CAC0EBD1E8AA99BA9B60129
:10332000A4010E94CA1B882301F1EAA9FBA980819C
:103330008823A1F0C701B801A60121E00E94721DF7
:10334000882399F0D501F70180E201900D92815018
:10335000E1F7C7010E94A5178501DFCFC701B801BA
:10336000A601272D0E94721D01C080E0E3960FB6D2
:10337000F894DEBF0FBECDBFCF91DF911F910F91AB
:10338000FF90EF90DF90CF90BF90AF909F908F9085
:103390007F900895EAA9FBA980818F3209F0AFCF11
:1033A00098CFFC018281806882834485558566853B
:1033B0007785868197813C969F010E949622089589
:1033C0002F923F924F925F926F927F929F92AF9215
:1033D000BF92CF92DF92EF92FF920F931F93CF9302
:1033E000DF93EC01162F072F2A01888183FF26C166
:1033F0008A8181FF23C13AC1488D598D6A8D7B8DA9
:10340000CE010E94CC14882309F418C1920140E037
:1034100050E088899989AA89BB8980959095A09563
:10342000B09582179307A407B50708F407C1812F49
:10343000902F9C0139017CE0272E312C2C0E3D1E53
:103440005201D3C0EE81FF81DA01C90169E0B6956E
:10345000A795979587956A95D1F7938098225FEF06
:10346000C52E51E0D52EC222D3229920A9F5C11430
:10347000D10491F54C855D856E857F85411551059B
:103480006105710571F0CF0191010E94CD2187FD89
:10349000D5C0882309F5CE010E94D1198823E1F413
:1034A000CDC08C8D9D8DAE8DBF8D0097A105B105D2
:1034B00079F4CE010E94D119882309F4BFC08C850C
:1034C0009D85AE85BF858C8F9D8FAE8FBF8F04C0CD
:1034D0008C879D87AE87BF874C855D856E857F8590
:1034E0008E819F810E94B3217B018C01E90CF11C2C
:1034F000011D111DC114D104A1F480E0A81682E0C1
:10350000B806D0F5288939894A895B89888D998DD3
:10351000AA8DBB8D281739074A075B0710F025E0F5
:1035200001C021E08E819F818096B801A7010E9491
:103530006E21009709F482C040E052E04C195D0909
:1035400085014A155B0508F48A019C012C0D3D1D7F
:10355000C901B301A8010E94BF01C00ED11E90E0B5
:10356000C91692E0D90671F58E819F8180960E94DE
:103570002521882339F562C0EE81FF8183A194A1C2
:10358000A5A1B6A18E159F05A007B10749F410A209
:103590008FEF9FEFAFEFBFEF83A394A3A5A3B6A3D5
:1035A000EE81FF81A081B18112960D90BC91A02D7A
:1035B000CF01B801A7019301FD0109958823F1F11D
:1035C00000E012E0980140E050E088899989AA89DA
:1035D000BB89820F931FA41FB51F888B998BAA8B61
:1035E000BB8B600E711EA01AB10A288939894A89DD
:1035F0005B89A114B10409F025CF888D998DAA8D1E
:10360000BB8D82179307A407B50728F4288F398F3D
:103610004A8F5B8F06C08091670590916805892B62
:1036200019F08A8180688A838A8183FF05C0CE0170
:103630000E944C17882311F0A20105C08981816086
:1036400089834FEF5FEFCA01DF91CF911F910F91F7
:10365000FF90EF90DF90CF90BF90AF909F907F90C2
:103660006F905F904F903F902F90089582FFCECE45
:10367000C3CEBF92CF92DF92EF92FF920F931F9330
:10368000CF93DF93EC01888185FD63C08889998998
:10369000AA89BB8980509E4FAF41B04008F059C005
:1036A000CE010E94D119882309F453C04C855D8551
:1036B0006E857F858E819F810E94B3216B017C0185
:1036C0008E819F818096B701A60125E00E946E2120
:1036D000FC010097F1F180E092E0DF019C011D9276
:1036E00021503040E1F7BE2E0F2F11E013C0ED91B5
:1036F000FC911197B701A601410F511D611D711D6C
:103700000280F381E02DCD012B2D302F09958823E8
:1037100001F11F5FAE81BF8112962C911297121793
:1037200030F330E040E050E0E9E0220F331F441F67
:10373000551FEA95D1F788899989AA89BB89820F93
:10374000931FA41FB51F888B998BAA8BBB8B81E01D
:1037500001C080E0DF91CF911F910F91FF90EF901A
:10376000DF90CF90BF900895BC0140E020E030E0B2
:10377000842F8695479544274795482BFB01E20FF8
:10378000F31F8081480F2F5F3F4F2B30310581F7AA
:10379000842F0895CF92DF92EF92FF920F931F93A1
:1037A000CF93DF93EC018B019A0101C021968881B0
:1037B0008032E1F3F801D483C383A0E0B0E0FE01DE
:1037C000EA0FFB1FE081EE2311F0EF3221F4AE018E
:1037D0004A0F5B1F20C0EC3509F4EEC0E23209F459
:1037E000EBC0EA3209F4E8C0EA3309F4E5C0EC338F
:1037F00009F4E2C0EE3309F4DFC0EF3309F4DCC0B2
:10380000EC3709F4D9C0E052EF3508F0D5C0119675
:10381000D6CF4F5F5F4FFA0180818032D1F38F3274
:10382000C1F3F901408351831197FE01EA0FFB1F99
:10383000119607C080818E3211F0803229F41197E1
:1038400031971097B9F705C0AF3FB10511F00CF0F3
:10385000B3C0F801B283A18380E090E296838F5FCA
:1038600031968B30D9F760E070E002C06F5F7F4F18
:10387000FE01E60FF71FE081EE32C1F3E032B1F353
:103880009D0121503040FE01E20FF31F02C0215084
:1038900030408FEF2F3F380769F490E061157105D4
:1038A00009F491E0F8E0EF2EDD24CC2450E0E7E0CD
:1038B000FE2E5CC0808131978E3249F7EECFFE013B
:1038C000E60FF71F4081403209F44DC04E3229F413
:1038D0002617370709F047C004C0423291F04C3731
:1038E00081F0842F8A52863010F44D3251F4842FA7
:1038F0008A53863030F08152833018F0865C8E35E2
:1039000030F06217730741F04FE590E003C0621793
:10391000730711F0F51688F4EAE0FE1669F16217F4
:10392000730729F0261737073CF1B90190E040E111
:10393000E42E58E08AE0F82E17C0842F81568A3191
:1039400018F44052DE2805C0842F81548A3108F4CF
:10395000CE28F801E50FF11D46835F5F573020F454
:10396000F801558301C090E06F5F7F4F6A177B07B6
:103970000CF4A5CF4D2D02C04D2D90E0F8018681AD
:103980008032D1F0992361F08C2D90E02D2D30E024
:1039900082239323892B09F042E0F80140830AC077
:1039A00081E0F80180838581E80FF11D8EE7868331
:1039B00081E3878381E001C080E0DF91CF911F9197
:1039C0000F91FF90EF90DF90CF900895AF92BF924C
:1039D000CF92DF92EF92FF920F931F93CF93DF93DB
:1039E0007C01EB01DD80A6E0AA2EB12CA60EB71E4D
:1039F00002E010E0FEE7CF2E69817A81A801460F30
:103A0000571FAB81BC8120E030E013C0CA01E5E064
:103A1000880F991FEA95E1F7480F591FFD01E20F42
:103A2000F31F8081992787FD9095482759272F5F9D
:103A30003F4F2617370750F383E08D1510F4B3E09E
:103A4000DB2E9D2D9C5F842F8F708A3010F4805D5B
:103A500001C0895CFE01E90FF11D86839150D916E2
:103A600030F4A4E056954795AA95E1F7ECCFFE0116
:103A7000ED0DF11DC682C70140E050E060E070E04E
:103A80000E94CC14C70161E00E94D616FC01009789
:103A900031F420E0F70181818823C1F403C08081E3
:103AA000882311F421E012C0838583FDEBCFC5018B
:103AB000BF014BE050E00E94B201009719F70F5F81
:103AC0001F4F0436110509F097CF20E0822FDF91B8
:103AD000CF911F910F91FF90EF90DF90CF90BF900B
:103AE000AF9008952F923F924F925F926F927F9284
:103AF0008F929F92AF92BF92CF92DF92EF92FF92FE
:103B00000F931F93DF93CF9300D000D00F92CDB7C8
:103B1000DEB79B838A838B015A01422EDA0111960C
:103B20006D907C901297FB018081807709F41BC215
:103B3000AA81BB818C91882309F015C22DC2C301D3
:103B40000C966DE070E00E942828D62ED394C80110
:103B500040E050E060E070E00E94CC14A6E02A2E25
:103B6000312C2A0C3B1C19829924FF24EE24552465
:103B70001D821C8205C04E2D02C04E2D9924E42EBC
:103B8000F80180899189A289B389F5E0B695A79556
:103B900097958795FA95D1F7C82E892EC80161E0CF
:103BA0000E94D616DC01009739F4D80111968C9149
:103BB000882309F0D8C1AAC04C91453E11F0442396
:103BC00069F4FF2029F48C2D982D9C013D832C83D2
:103BD000FD1408F4F394442329F498C0FD1420F450
:103BE000FF2402C0453E49F24E3239F21B968C91B9
:103BF0001B978F3009F057C08C91992049F486FFAC
:103C0000BACF482F4F711D965C901D97942E0DC012
:103C1000482F8E2D8150481711F0482FAFCF1D9699
:103C20008C911D97581609F0A9CFEDE04E9F900199
:103C300011242D5030402615370508F09FCF50E055
:103C4000553028F411968D919C9112970BC05B30E2
:103C500028F414968D919C91159704C016968D9119
:103C60009C9117972615370521F4892B09F086CFEB
:103C700086CF8F3F910511F008F080CF982F8154A7
:103C80008A3108F4905EF50163817481620F731FBD
:103C9000FB016081862F81548A3108F4605E96179B
:103CA00009F06CCF84C183FD68CF9920D9F0F1E091
:103CB000EF1609F058C190E020E030E0892F86959A
:103CC000979599279795982BFD01E20FF31F808117
:103CD000980F2F5F3F4F2B30310581F7951509F075
:103CE00042C111C0CD01B1014BE050E00E94B201D0
:103CF000009709F040CFD5018C9180FF04C04E2D74
:103D0000B1E0B9833CCF47FE21C12DC146FE2BC196
:103D100041FE29C1FF2099F48C2D982D9C013D83F3
:103D20002C830DC0C80160E00E94D616892B31F4A7
:103D3000F8018181882309F016C114C0F394FD14A1
:103D400088F310C0C8010E94391B882309F40BC1F5
:103D5000D8011696ED91FC9117978281823020F45C
:103D6000B0E1FB0EFD1470F3E981EE2339F0C801D8
:103D7000B5010E94E61C882309F4F5C08C819D8161
:103D8000AC0160E070E0E5E0440F551F661F771F4F
:103D9000EA95D1F7C8010E94CC14882309F4E3C046
:103DA0009D2C9A94F92C4FE0E42E3DE0C32ED12CAB
:103DB00072C0C80160E00E94D616DC01009709F4C9
:103DC000D2C0F80126813781F90180A1816080A3EA
:103DD000F91411F08F2D02C08F2D80648C931B96E7
:103DE000EC921B971C961C921C97F50190E020E02A
:103DF000892F8695979599279795982B8681980F67
:103E00002F5F31962B30A1F71D969C931D975B96E3
:103E10001C921E925A978C9190E08F7190708C9D9D
:103E200090018D9D300D9C9D300D11242D50304002
:103E3000F50163817481620F731F40E02615370519
:103E400030F4FB018081992787FD909508C02615E5
:103E5000370519F08FEF9FEF02C080E090E045300A
:103E600028F412969C938E9311970BC04B3028F434
:103E700015969C938E93149704C017969C938E93DB
:103E800016974F5F12966F5F7F4F4D3019F02F5F7F
:103E90003F4FD4CFFA94FF2009F08BCFD801509632
:103EA000CD90DD90ED90FC905397C80160E00E94AA
:103EB000D6163C01009709F456C080E2F301119236
:103EC0008A95E9F7D301F1018BE001900D928150C1
:103ED000E1F7D5018C918871F3018487E091670542
:103EE000F0916805309739F0B301625F7F4FC301ED
:103EF000409609950DC081E298E2D30151969C93BA
:103F00008E93509780E098E01F969C938E931E9717
:103F1000D701C60125E0B695A795979587952A956F
:103F2000D1F7C82E892EF30180899189938B828BDA
:103F3000918F808F86859785978B868BD801169673
:103F4000ED91FC91179780A1816080A38A819B816C
:103F5000B8014C2D582D242D092D0E94CD178823F2
:103F600019F081E001C080E00F900F900F900F904A
:103F70000F90CF91DF911F910F91FF90EF90DF9005
:103F8000CF90BF90AF909F908F907F906F905F90F9
:103F90004F903F902F900895FA01808190E08370B8
:103FA0009070892B09F0CBCDDD24D394D0CD5F5F09
:103FB00012965D3009F4E3CD2F5F3F4F41CECF9392
:103FC000DF93FC01EB0188859985AA85BB85009765
:103FD000A105B10531F46E817F81CF010E94AF1739
:103FE00016C080E2DF011D928A95E9F780E18083A7
:103FF00081E082838E819F819783868388859985DE
:10400000AA85BB85848F958FA68FB78F81E0DF91BE
:10401000CF9108952F923F925F926F927F928F92ED
:104020009F92AF92BF92CF92DF92EF92FF920F9347
:104030001F93DF93CF93CDB7DEB7A2970FB6F89457
:10404000DEBF0FBECDBF7C016B014A0119821A820F
:10405000FC018081882309F49FC04D30510508F48C
:104060009BC0B5C0C701B6010E94092198C08E014E
:104070000F5F1F4FC801B7010E94DF1F882309F49B
:104080008BC077247394C801502E692E3DE0232EF7
:10409000312C5601A80CB91C0894A108B10877C0AE
:1040A000072D10E0F70144815581401B510B60E062
:1040B00070E025E0440F551F661F771F2A95D1F742
:1040C000852D962D0E94CC14882309F465C0852D7A
:1040D000962D60E00E94D616DC01009709F45CC0C2
:1040E0001B968C911B978F3009F056C08C9190E0F5
:1040F0008F7190700817190709F04EC0029DC0011A
:10410000039D900D129D900D11240D979AA389A3E4
:10411000BC016C0D7D1D9D0140E0453020F4F9018E
:104120008181928109C04B3020F4F901848195810D
:1041300003C0F901868197810097B1F0E9A1FAA146
:10414000E815F905E0F48F37910508F08FE3FB01DE
:104150008193BF0189A19AA101969AA389A34F5F78
:104160002E5F3F4F4D30C9F6E9A1FAA1E815F905D8
:1041700030F48C9186FF03C0EC0DFD1D1082F5011B
:1041800010828C9186FF02C081E009C07394F70110
:104190008381871508F084CFF601108280E0A29613
:1041A0000FB6F894DEBF0FBECDBFCF91DF911F9148
:1041B0000F91FF90EF90DF90CF90BF90AF909F90C6
:1041C0008F907F906F905F903F902F900895F701B0
:1041D0008381882309F04BCF45CFCF93DF93EC0148
:1041E0006115710519F420E030E00FC0DB010D907E
:1041F0000020E9F71197A61BB70BE881F98102802F
:10420000F381E02DAD0109959C01C901DF91CF91AA
:104210000895CF93DF93FC01EB018081882389F01F
:10422000807621F08FE28883198209C0CF0160E097
:104230000E942B17009729F0BE010E94921481E082
:1042400001C080E0DF91CF910895EF92FF920F932C
:104250001F93CF93DF93EC01888180FF35C0A98144
:10426000BA818E01095F1F4FED91FC9111974B812F
:104270005C816D817E810280F381E02DCD0198010A
:104280000995882319F1888181FF1BC0E981FA8192
:104290002081318144855585668577858B819C8118
:1042A000AD81BE81480F591F6A1F7B1FD90112962D
:1042B000ED90FC901397CF019801F70109958823A1
:1042C00029F088818E7F888381E001C080E0DF91C2
:1042D000CF911F910F91FF90EF900895DF92EF9291
:1042E000FF920F931F93CF93DF93EC017A018B0121
:1042F000D22E8B819C81AD81BE8184179507A60744
:10430000B707E9F0CE010E942521882309F1D2FCEC
:1043100011C0A981BA81ED91FC9111979E01295F8D
:104320003F4F0190F081E02DCD01B801A701099523
:10433000882371F01882EB82FC820D831E8383E058
:10434000D82288818D2988839E01295F3F4F02C032
:1043500020E030E0C901DF91CF911F910F91FF90D4
:10436000EF90DF900895FC019A01AB01225030409C
:1043700040405040048004C0220F331F441F551F8B
:104380000A94D2F780899189A289B389280F391FAD
:104390004A1F5B1FB901CA010895CF92DF92EF92C5
:1043A000FF920F931F93CF93DF93EC017A018B0160
:1043B00069018D81803229F5E7E0769567955795FB
:1043C0004795EA95D1F78C899D89AE89BF89480FB9
:1043D000591F6A1F7B1FCE01809622E00E946E212A
:1043E0000097E9F1F701EF77F070EE0FFF1FEE0F86
:1043F000FF1FE80FF91F40815181628173817F7037
:104400001CC0803161F54C895D896E897F894F0DB3
:10441000511D611D711DCE01809622E00E946E210A
:104420000097E9F0F701F070EE0FFF1FE80FF91F9A
:1044300080819181AC0160E070E0888D998DAA8DBA
:10444000BB8D84179507A607B70710F480E008C056
:10445000F601408351836283738381E001C08FEF53
:10446000DF91CF911F910F91FF90EF90DF90CF9050
:1044700008958F929F92AF92BF92CF92DF92EF9268
:10448000FF920F931F93FC016A017B0148015901C0
:104490008581803221F517E0769567955795479588
:1044A0001A95D1F784899589A689B789480F591F2C
:1044B0006A1F7B1FCF01809623E00E946E21009728
:1044C00049F1F601EF77F070EE0FFF1FEE0FFF1FBF
:1044D000E80FF91F80829182A282B38219C08031D5
:1044E000C9F444895589668977894D0D511D611D2F
:1044F000711DCF01809623E00E946E21009751F03C
:10450000F601F070EE0FFF1FE80FF91F9182808215
:1045100081E001C080E01F910F91FF90EF90DF904C
:10452000CF90BF90AF909F908F9008952F923F9221
:104530004F925F926F927F928F929F92AF92BF92B3
:10454000CF92DF92EF92FF920F931F93DF93CF935F
:1045500000D000D000D0CDB7DEB71C012A013B014E
:104560003E832D83411551056105710519F04A01FE
:104570005B0105C0FC0180849184A284B384750131
:1045800064018E010F5F1F4F0894C11CD11CE11CF8
:10459000F11CF101808D918DA28DB38D8C159D053F
:1045A000AE05BF0528F492E0C92ED12CE12CF12CE8
:1045B000C101B701A60198010E94CD2187FD37C036
:1045C000882341F089819A81AB81BC810097A10544
:1045D000B10531F0C814D904EA04FB04A9F627C0D8
:1045E000C101B701A6010FEF1FEF2FEF3FE00E94BF
:1045F00039228823E1F0411451046104710451F01F
:10460000C101B301A201970186010E9439228823CA
:1046100031F40DC0F101C086D186E286F386ED81CA
:10462000FE81C082D182E282F38281E001C080E01B
:1046300026960FB6F894DEBF0FBECDBFCF91DF91A7
:104640001F910F91FF90EF90DF90CF90BF90AF90B0
:104650009F908F907F906F905F904F903F902F90A2
:1046600008956F927F929F92AF92BF92CF92DF9206
:10467000EF92FF920F931F93DF93CF9300D000D060
:10468000CDB7DEB75C016A017B013E010894611C75
:10469000711CC501B701A60193010E94CD21982E7E
:1046A00087FD21C0C501B701A60100E010E020E0B0
:1046B00030E00E9439228823B1F0F5018085918590
:1046C000A285B385C816D906EA06FB0620F4C08683
:1046D000D186E286F386C980DA80EB80FC8099205F
:1046E000C1F681E001C080E00F900F900F900F9015
:1046F000CF91DF911F910F91FF90EF90DF90CF90BE
:10470000BF90AF909F907F906F900895CF92DF926F
:10471000EF92FF920F931F93CF93DF93EC01162F2D
:104720001D8281E090E0A0E0B0E088879987AA87A9
:10473000BB87DAA3C9A318A28FEF9FEFAFEFBFEF3C
:104740008BA39CA3ADA3BEA3662321F4CC24DD24BC
:10475000760138C0653008F0F3C0CE01809640E0A5
:1047600050E060E070E020E00E946E21DC010097E4
:1047700009F4E6C0612F70E061507040FB0184E0F5
:10478000EE0FFF1F8A95E1F7EA0FFB1FE254FE4F81
:10479000808190E08F779070892B09F0D1C004E080
:1047A000660F771F0A95E1F7A60FB71FAA53BE4FF2
:1047B000CD90DD90ED90FC90C114D104E104F104A2
:1047C00009F4BEC0CE018096B701A60120E00E9488
:1047D0006E21FC01009709F4B3C083859485805055
:1047E000924009F0ADC08089823009F0A9C0868569
:1047F0009785892B09F4A4C085858A8381508B8392
:104800001C8291E020E030E00AC02F5F3F4F29304A
:10481000310509F495C0990F8C818F5F8C838A8153
:10482000891799F7268937892115310521F0A901C2
:1048300060E070E004C044A155A166A177A14C8757
:104840005D876E877F8786859785A0E0B0E08C0DB9
:104850009D1DAE1DBF1D8C8B9D8BAE8BBF8B21898B
:1048600032893F832E839A01AB01220F331F441FED
:10487000551F280F391F4A1F5B1F2C8F3D8F4E8FEE
:104880005F8F8189928975E0880F991F7A95E1F78A
:1048900081509E4F892F99278695A0E0B0E0820F26
:1048A000931FA41FB51F888B998BAA8BBB8B238961
:1048B00034892115310521F0890120E030E004C060
:1048C00000A111A122A133A1B701A601481B590BD8
:1048D0006A0B7B0B400F511F621F731F0C8004C0BB
:1048E00076956795579547950A94D2F74F5F5F4F36
:1048F0006F4F7F4F488F598F6A8F7B8F4150504049
:1049000060407040453F8FE0580780E0680780E0D6
:10491000780718F48CE08D8313C0455F5F4F6040CB
:10492000704010F480E109C084A595A5A6A5B7A59F
:104930008C8F9D8FAE8FBF8F80E28D8381E001C011
:1049400080E0DF91CF911F910F91FF90EF90DF906A
:10495000CF9008951F920F920FB60F9211242F93AC
:104960003F938F939F93AF93BF9380916D059091E9
:104970006E05A0916F05B09170053091710501969B
:10498000A11DB11D232F2D5F2D3720F02D5701962E
:10499000A11DB11D2093710580936D0590936E0547
:1049A000A0936F05B09370058091690590916A0599
:1049B000A0916B05B0916C050196A11DB11D80936E
:1049C000690590936A05A0936B05B0936C05BF9140
:1049D000AF919F918F913F912F910F900FBE0F90AC
:1049E0001F9018958FB7F89420916D0530916E0542
:1049F00040916F05509170058FBFB901CA010895AC
:104A00009B01AC017FB7F8948091690590916A058C
:104A1000A0916B05B0916C0566B5A89B05C06F3F72
:104A200019F00196A11DB11D7FBFBA2FA92F982F94
:104A30008827860F911DA11DB11D62E0880F991F67
:104A4000AA1FBB1F6A95D1F7BC012DC0FFB7F89410
:104A50008091690590916A05A0916B05B0916C05F4
:104A6000E6B5A89B05C0EF3F19F00196A11DB11D49
:104A7000FFBFBA2FA92F982F88278E0F911DA11D38
:104A8000B11DE2E0880F991FAA1FBB1FEA95D1F75D
:104A9000861B970B885E9340C8F2215030404040FF
:104AA000504068517C4F211531054105510571F683
:104AB0000895019739F0880F991F880F991F029761
:104AC0000197F1F70895789484B5826084BD84B528
:104AD000816084BD85B5826085BD85B5816085BDF9
:104AE000EEE6F0E0808181608083E1E8F0E0108212
:104AF000808182608083808181608083E0E8F0E053
:104B0000808181608083E1EBF0E08081846080833C
:104B1000E0EBF0E0808181608083EAE7F0E0808173
:104B200084608083808182608083808181608083D3
:104B30008081806880831092C1000895CF93DF93B5
:104B4000482F50E0CA0186569F4FFC0134914A57C6
:104B50005F4FFA018491882369F190E0880F991FD3
:104B6000FC01E859FF4FA591B491FC01EE58FF4FAD
:104B7000C591D491662351F42FB7F8948C91932F5B
:104B8000909589238C93888189230BC0623061F4CE
:104B90002FB7F8948C91932F909589238C938881CB
:104BA000832B88832FBF06C09FB7F8948C91832BEB
:104BB0008C939FBFDF91CF910895482F50E0CA0199
:104BC00082559F4FFC012491CA0186569F4FFC01DC
:104BD00094914A575F4FFA013491332309F440C04E
:104BE000222351F1233071F0243028F42130A1F038
:104BF000223011F514C02630B1F02730C1F0243036
:104C0000D9F404C0809180008F7703C08091800028
:104C10008F7D8093800010C084B58F7702C084B5EB
:104C20008F7D84BD09C08091B0008F7703C08091D3
:104C3000B0008F7D8093B000E32FF0E0EE0FFF1FF8
:104C4000EE58FF4FA591B4912FB7F894662321F445
:104C50008C919095892302C08C91892B8C932FBFC6
:104C60000895682F70E0CB0182559F4FFC0124917D
:104C7000CB0186569F4FFC0144916A577F4FFB0141
:104C80009491992319F420E030E03CC0222351F1A3
:104C9000233071F0243028F42130A1F0223011F5B6
:104CA00014C02630B1F02730C1F02430D9F404C04C
:104CB000809180008F7703C0809180008F7D8093EA
:104CC000800010C084B58F7702C084B58F7D84BD0D
:104CD00009C08091B0008F7703C08091B0008F7DB4
:104CE0008093B000892F90E0880F991F84589F4FC0
:104CF000FC01A591B4918C9120E030E0842311F067
:104D000021E030E0C90108950F93FC0180E492E0B6
:104D10009183808362834383248305830F91089565
:104D200080E492E09093730580937205109274056D
:104D300010927505109276051092770508958F925E
:104D40009F92AF92BF92CF92DF92EF92FF920F931A
:104D50001F93CF93DF934C016B017C01AA24BB24EA
:104D6000C0E0D0E0C601F70162814AE050E00E9455
:104D7000A1278C01C6016EE20E941527080F191F9A
:104D8000A00EB11E21960894E11CF11CC330D10580
:104D900049F7C601F40165814AE050E00E94A1276D
:104DA0009501280F391FC901DF91CF911F910F91F4
:104DB000FF90EF90DF90CF90BF90AF909F908F903B
:104DC0000895FC0180E492E0918380831282138233
:104DD000148215820895CF92DF92EF92FF920F9383
:104DE0001F93CF93DF937C016B018A01C0E0D0E079
:104DF0000FC0D6016D916D01D701ED91FC9101902D
:104E0000F081E02DC7010995C80FD91F015010404E
:104E10000115110571F7CE01DF91CF911F910F910F
:104E2000FF90EF90DF90CF900895DC01ED91FC9121
:104E30000190F081E02D099508954F925F927F9245
:104E40008F929F92AF92BF92CF92DF92EF92FF929A
:104E50000F931F93DF93CF93CDB7DEB7A1970FB614
:104E6000F894DEBF0FBECDBF2C01742ECB012230D3
:104E700008F42AE019A231E2C32ED12CCC0EDD1E9B
:104E8000822E9924AA24BB24672D752FA501940195
:104E90000E944F2879018A01C801B701A501940138
:104EA0000E940928472D461B0894C108D1084A30A2
:104EB00014F4405D01C0495CF6014083E114F10443
:104EC0000105110521F07E2C5F2DC801DDCFC20147
:104ED000B6010E94ED20A1960FB6F894DEBF0FBE7A
:104EE000CDBFCF91DF911F910F91FF90EF90DF9099
:104EF000CF90BF90AF909F908F907F905F904F909A
:104F00000895DC012115310541F4ED91FC910190EA
:104F1000F081E02D642F099508950E941D270895C2
:104F2000EF92FF920F931F939A017B0100E010E034
:104F3000B801A7010E9481271F910F91FF90EF9068
:104F40000895EF92FF920F931F939A01E62EFF248C
:104F500000E010E0B801A7010E9481271F910F9186
:104F6000FF90EF900895CF92DF92EF92FF920F9310
:104F70001F93CF93DF93EC016A017B01211531056B
:104F800041F4E881F9810190F081E02D642F0995C9
:104F90001FC02A303105D1F477FF17C0E881F981AD
:104FA0000190F081E02D6DE209958C014427552791
:104FB000BA014C195D096E097F09CE012AE00E94F1
:104FC0001D279801280F391F04C02AE00E941D27C1
:104FD0009C01C901DF91CF911F910F91FF90EF903C
:104FE000DF90CF900895EF92FF920F931F937B0174
:104FF0009A010027F7FC0095102FB801A7010E9425
:10500000B3271F910F91FF90EF9008950E94ED201C
:105010000895629FD001739FF001829FE00DF11D02
:10502000649FE00DF11D929FF00D839FF00D749F22
:10503000F00D659FF00D9927729FB00DE11DF91FCE
:10504000639FB00DE11DF91FBD01CF01112408952B
:10505000AA1BBB1B51E107C0AA1FBB1FA617B7079E
:1050600010F0A61BB70B881F991F5A95A9F78095BA
:105070009095BC01CD01089597FB092E07260AD013
:1050800077FD04D0E5DF06D000201AF47095619515
:105090007F4F0895F6F7909581959F4F0895A1E26F
:1050A0001A2EAA1BBB1BFD010DC0AA1FBB1FEE1FA2
:1050B000FF1FA217B307E407F50720F0A21BB30BED
:1050C000E40BF50B661F771F881F991F1A9469F769
:1050D00060957095809590959B01AC01BD01CF01C5
:1050E000089597FB092E05260ED057FD04D0D7DF73
:1050F0000AD0001C38F450954095309521953F4FCB
:105100004F4F5F4F0895F6F7909580957095619594
:105110007F4F8F4F9F4F0895EE0FFF1F0590F49123
:08512000E02D0994F894FFCF83
:105128005B467265713A2000487A00467265713AAA
:10513800200053442043617264002066696C652C2A
:1051480020002066696C65732C2000206469720059
:105158002064697273004C697665204D6F64650040
:105168004669786564204D6F6465004C69766520F2
:105178004D6F6465204F4E00022000466F6C6465D9
:1051880072002E6F6D6400002F0043616E2774203B
:105198007377697463682100436865636B696E6738
:1051A8002053442043617264004E6F20636172642F
:1051B80020666F756E640042616420506172746984
:1051C80074696F6E0042616420526F6F7400556E8F
:1051D8006B6E6F776E206572726F72004E6F2076FD
:1051E800616C69642066696C65730020007C050049
:1051F80000FFFFFFFFFFFFFFFFF0F8FCFEFCF8F0E9
:105208000002140000000000EC05E70500000000A3
:10521800F505F105212121211B1714141211100F76
:105228000E0D0C0B0A0908080808080808080102EE
:1052380004081020DC00E900F7000601150126012A
:1052480037014A015D01720188019F0100000000D9
:10525800A510EB26000040001400540000000000D8
:025268009F267F
:00000001FF
